{"abi":[{"inputs":[{"internalType":"string","name":"name","type":"string"},{"internalType":"string","name":"image","type":"string"},{"internalType":"uint256","name":"value","type":"uint256"},{"internalType":"address","name":"account","type":"address"},{"internalType":"string","name":"buyer","type":"string"},{"internalType":"string","name":"seller","type":"string"}],"name":"buy","outputs":[],"stateMutability":"payable","type":"function"},{"inputs":[{"internalType":"uint256","name":"","type":"uint256"}],"name":"deploy","outputs":[{"internalType":"address","name":"","type":"address"}],"stateMutability":"view","type":"function"},{"inputs":[],"name":"get","outputs":[{"internalType":"address","name":"","type":"address"}],"stateMutability":"view","type":"function"}],"devdoc":{"kind":"dev","methods":{},"version":1},"evm":{"assembly":"    /* \"Auctioninfo.sol\":61:786  contract Factory {... */\n  mstore(0x40, 0x80)\n  callvalue\n  dup1\n  iszero\n  tag_1\n  jumpi\n  0x00\n  dup1\n  revert\ntag_1:\n  pop\n  dataSize(sub_0)\n  dup1\n  dataOffset(sub_0)\n  0x00\n  codecopy\n  0x00\n  return\nstop\n\nsub_0: assembly {\n        /* \"Auctioninfo.sol\":61:786  contract Factory {... */\n      mstore(0x40, 0x80)\n      jumpi(tag_1, lt(calldatasize, 0x04))\n      shr(0xe0, calldataload(0x00))\n      dup1\n      0x411eded3\n      eq\n      tag_2\n      jumpi\n      dup1\n      0x6d4ce63c\n      eq\n      tag_3\n      jumpi\n      dup1\n      0xa5e38751\n      eq\n      tag_4\n      jumpi\n    tag_1:\n      0x00\n      dup1\n      revert\n        /* \"Auctioninfo.sol\":117:679  function buy (... */\n    tag_2:\n      tag_5\n      0x04\n      dup1\n      calldatasize\n      sub\n      dup2\n      add\n      swap1\n      tag_6\n      swap2\n      swap1\n      tag_7\n      jump\t// in\n    tag_6:\n      tag_8\n      jump\t// in\n    tag_5:\n      stop\n        /* \"Auctioninfo.sol\":687:783  function get() public view returns (address) {... */\n    tag_3:\n      callvalue\n      dup1\n      iszero\n      tag_9\n      jumpi\n      0x00\n      dup1\n      revert\n    tag_9:\n      pop\n      tag_10\n      tag_11\n      jump\t// in\n    tag_10:\n      mload(0x40)\n      tag_12\n      swap2\n      swap1\n      tag_13\n      jump\t// in\n    tag_12:\n      mload(0x40)\n      dup1\n      swap2\n      sub\n      swap1\n      return\n        /* \"Auctioninfo.sol\":85:108  address[] public deploy */\n    tag_4:\n      callvalue\n      dup1\n      iszero\n      tag_14\n      jumpi\n      0x00\n      dup1\n      revert\n    tag_14:\n      pop\n      tag_15\n      0x04\n      dup1\n      calldatasize\n      sub\n      dup2\n      add\n      swap1\n      tag_16\n      swap2\n      swap1\n      tag_17\n      jump\t// in\n    tag_16:\n      tag_18\n      jump\t// in\n    tag_15:\n      mload(0x40)\n      tag_19\n      swap2\n      swap1\n      tag_13\n      jump\t// in\n    tag_19:\n      mload(0x40)\n      dup1\n      swap2\n      sub\n      swap1\n      return\n        /* \"Auctioninfo.sol\":117:679  function buy (... */\n    tag_8:\n        /* \"Auctioninfo.sol\":361:366  value */\n      dup6\n        /* \"Auctioninfo.sol\":350:359  msg.value */\n      callvalue\n        /* \"Auctioninfo.sol\":350:366  msg.value==value */\n      eq\n        /* \"Auctioninfo.sol\":342:388  require(msg.value==value, \"sent full payment\") */\n      tag_21\n      jumpi\n      mload(0x40)\n      0x08c379a000000000000000000000000000000000000000000000000000000000\n      dup2\n      mstore\n      0x04\n      add\n      tag_22\n      swap1\n      tag_23\n      jump\t// in\n    tag_22:\n      mload(0x40)\n      dup1\n      swap2\n      sub\n      swap1\n      revert\n    tag_21:\n        /* \"Auctioninfo.sol\":399:418  address newCampaign */\n      0x00\n        /* \"Auctioninfo.sol\":458:462  name */\n      dup11\n      dup11\n        /* \"Auctioninfo.sol\":477:482  image */\n      dup11\n      dup11\n        /* \"Auctioninfo.sol\":497:502  value */\n      dup11\n        /* \"Auctioninfo.sol\":517:524  account */\n      dup11\n        /* \"Auctioninfo.sol\":539:544  buyer */\n      dup11\n      dup11\n        /* \"Auctioninfo.sol\":559:565  seller */\n      dup11\n      dup11\n        /* \"Auctioninfo.sol\":429:576  new FundRaiser(... */\n      mload(0x40)\n      tag_24\n      swap1\n      tag_25\n      jump\t// in\n    tag_24:\n      tag_26\n      swap11\n      swap10\n      swap9\n      swap8\n      swap7\n      swap6\n      swap5\n      swap4\n      swap3\n      swap2\n      swap1\n      tag_27\n      jump\t// in\n    tag_26:\n      mload(0x40)\n      dup1\n      swap2\n      sub\n      swap1\n      0x00\n      create\n      dup1\n      iszero\n      dup1\n      iszero\n      tag_28\n      jumpi\n      returndatasize\n      0x00\n      dup1\n      returndatacopy\n      revert(0x00, returndatasize)\n    tag_28:\n      pop\n        /* \"Auctioninfo.sol\":399:577  address newCampaign = address(new FundRaiser(... */\n      swap1\n      pop\n        /* \"Auctioninfo.sol\":596:603  account */\n      dup6\n        /* \"Auctioninfo.sol\":588:613  payable(account).transfer */\n      0xffffffffffffffffffffffffffffffffffffffff\n      and\n        /* \"Auctioninfo.sol\":588:636  payable(account).transfer(address(this).balance) */\n      0x08fc\n        /* \"Auctioninfo.sol\":614:635  address(this).balance */\n      selfbalance\n        /* \"Auctioninfo.sol\":588:636  payable(account).transfer(address(this).balance) */\n      swap1\n      dup2\n      iszero\n      mul\n      swap1\n      mload(0x40)\n      0x00\n      mload(0x40)\n      dup1\n      dup4\n      sub\n      dup2\n      dup6\n      dup9\n      dup9\n      call\n      swap4\n      pop\n      pop\n      pop\n      pop\n      iszero\n      dup1\n      iszero\n      tag_30\n      jumpi\n      returndatasize\n      0x00\n      dup1\n      returndatacopy\n      revert(0x00, returndatasize)\n    tag_30:\n      pop\n        /* \"Auctioninfo.sol\":647:653  deploy */\n      0x00\n        /* \"Auctioninfo.sol\":659:670  newCampaign */\n      dup2\n        /* \"Auctioninfo.sol\":647:671  deploy.push(newCampaign) */\n      swap1\n      dup1\n      0x01\n      dup2\n      sload\n      add\n      dup1\n      dup3\n      sstore\n      dup1\n      swap2\n      pop\n      pop\n      0x01\n      swap1\n      sub\n      swap1\n      0x00\n      mstore\n      keccak256(0x00, 0x20)\n      add\n      0x00\n      swap1\n      swap2\n      swap1\n      swap2\n      swap1\n      swap2\n      0x0100\n      exp\n      dup2\n      sload\n      dup2\n      0xffffffffffffffffffffffffffffffffffffffff\n      mul\n      not\n      and\n      swap1\n      dup4\n      0xffffffffffffffffffffffffffffffffffffffff\n      and\n      mul\n      or\n      swap1\n      sstore\n      pop\n        /* \"Auctioninfo.sol\":331:679  {... */\n      pop\n        /* \"Auctioninfo.sol\":117:679  function buy (... */\n      pop\n      pop\n      pop\n      pop\n      pop\n      pop\n      pop\n      pop\n      pop\n      pop\n      jump\t// out\n        /* \"Auctioninfo.sol\":687:783  function get() public view returns (address) {... */\n    tag_11:\n        /* \"Auctioninfo.sol\":723:730  address */\n      0x00\n        /* \"Auctioninfo.sol\":750:756  deploy */\n      dup1\n        /* \"Auctioninfo.sol\":773:774  1 */\n      0x01\n        /* \"Auctioninfo.sol\":757:763  deploy */\n      0x00\n        /* \"Auctioninfo.sol\":757:770  deploy.length */\n      dup1\n      sload\n      swap1\n      pop\n        /* \"Auctioninfo.sol\":757:774  deploy.length - 1 */\n      tag_33\n      swap2\n      swap1\n      tag_34\n      jump\t// in\n    tag_33:\n        /* \"Auctioninfo.sol\":750:775  deploy[deploy.length - 1] */\n      dup2\n      sload\n      dup2\n      lt\n      tag_35\n      jumpi\n      tag_36\n      tag_37\n      jump\t// in\n    tag_36:\n    tag_35:\n      swap1\n      0x00\n      mstore\n      keccak256(0x00, 0x20)\n      add\n      0x00\n      swap1\n      sload\n      swap1\n      0x0100\n      exp\n      swap1\n      div\n      0xffffffffffffffffffffffffffffffffffffffff\n      and\n        /* \"Auctioninfo.sol\":743:775  return deploy[deploy.length - 1] */\n      swap1\n      pop\n        /* \"Auctioninfo.sol\":687:783  function get() public view returns (address) {... */\n      swap1\n      jump\t// out\n        /* \"Auctioninfo.sol\":85:108  address[] public deploy */\n    tag_18:\n      0x00\n      dup2\n      dup2\n      sload\n      dup2\n      lt\n      tag_39\n      jumpi\n      0x00\n      dup1\n      revert\n    tag_39:\n      swap1\n      0x00\n      mstore\n      keccak256(0x00, 0x20)\n      add\n      0x00\n      swap2\n      pop\n      sload\n      swap1\n      0x0100\n      exp\n      swap1\n      div\n      0xffffffffffffffffffffffffffffffffffffffff\n      and\n      dup2\n      jump\t// out\n    tag_25:\n      dataSize(sub_0)\n      dup1\n      dataOffset(sub_0)\n      dup4\n      codecopy\n      add\n      swap1\n      jump\t// out\n        /* \"#utility.yul\":88:205   */\n    tag_42:\n        /* \"#utility.yul\":197:198   */\n      0x00\n        /* \"#utility.yul\":194:195   */\n      dup1\n        /* \"#utility.yul\":187:199   */\n      revert\n        /* \"#utility.yul\":211:328   */\n    tag_43:\n        /* \"#utility.yul\":320:321   */\n      0x00\n        /* \"#utility.yul\":317:318   */\n      dup1\n        /* \"#utility.yul\":310:322   */\n      revert\n        /* \"#utility.yul\":334:451   */\n    tag_44:\n        /* \"#utility.yul\":443:444   */\n      0x00\n        /* \"#utility.yul\":440:441   */\n      dup1\n        /* \"#utility.yul\":433:445   */\n      revert\n        /* \"#utility.yul\":457:574   */\n    tag_45:\n        /* \"#utility.yul\":566:567   */\n      0x00\n        /* \"#utility.yul\":563:564   */\n      dup1\n        /* \"#utility.yul\":556:568   */\n      revert\n        /* \"#utility.yul\":580:697   */\n    tag_46:\n        /* \"#utility.yul\":689:690   */\n      0x00\n        /* \"#utility.yul\":686:687   */\n      dup1\n        /* \"#utility.yul\":679:691   */\n      revert\n        /* \"#utility.yul\":717:1270   */\n    tag_47:\n        /* \"#utility.yul\":775:783   */\n      0x00\n        /* \"#utility.yul\":785:791   */\n      dup1\n        /* \"#utility.yul\":835:838   */\n      dup4\n        /* \"#utility.yul\":828:832   */\n      0x1f\n        /* \"#utility.yul\":820:826   */\n      dup5\n        /* \"#utility.yul\":816:833   */\n      add\n        /* \"#utility.yul\":812:839   */\n      slt\n        /* \"#utility.yul\":802:924   */\n      tag_72\n      jumpi\n        /* \"#utility.yul\":843:922   */\n      tag_73\n      tag_44\n      jump\t// in\n    tag_73:\n        /* \"#utility.yul\":802:924   */\n    tag_72:\n        /* \"#utility.yul\":956:962   */\n      dup3\n        /* \"#utility.yul\":943:963   */\n      calldataload\n        /* \"#utility.yul\":933:963   */\n      swap1\n      pop\n        /* \"#utility.yul\":986:1004   */\n      0xffffffffffffffff\n        /* \"#utility.yul\":978:984   */\n      dup2\n        /* \"#utility.yul\":975:1005   */\n      gt\n        /* \"#utility.yul\":972:1089   */\n      iszero\n      tag_74\n      jumpi\n        /* \"#utility.yul\":1008:1087   */\n      tag_75\n      tag_45\n      jump\t// in\n    tag_75:\n        /* \"#utility.yul\":972:1089   */\n    tag_74:\n        /* \"#utility.yul\":1122:1126   */\n      0x20\n        /* \"#utility.yul\":1114:1120   */\n      dup4\n        /* \"#utility.yul\":1110:1127   */\n      add\n        /* \"#utility.yul\":1098:1127   */\n      swap2\n      pop\n        /* \"#utility.yul\":1176:1179   */\n      dup4\n        /* \"#utility.yul\":1168:1172   */\n      0x01\n        /* \"#utility.yul\":1160:1166   */\n      dup3\n        /* \"#utility.yul\":1156:1173   */\n      mul\n        /* \"#utility.yul\":1146:1154   */\n      dup4\n        /* \"#utility.yul\":1142:1174   */\n      add\n        /* \"#utility.yul\":1139:1180   */\n      gt\n        /* \"#utility.yul\":1136:1264   */\n      iszero\n      tag_76\n      jumpi\n        /* \"#utility.yul\":1183:1262   */\n      tag_77\n      tag_46\n      jump\t// in\n    tag_77:\n        /* \"#utility.yul\":1136:1264   */\n    tag_76:\n        /* \"#utility.yul\":717:1270   */\n      swap3\n      pop\n      swap3\n      swap1\n      pop\n      jump\t// out\n        /* \"#utility.yul\":1276:1353   */\n    tag_48:\n        /* \"#utility.yul\":1313:1320   */\n      0x00\n        /* \"#utility.yul\":1342:1347   */\n      dup2\n        /* \"#utility.yul\":1331:1347   */\n      swap1\n      pop\n        /* \"#utility.yul\":1276:1353   */\n      swap2\n      swap1\n      pop\n      jump\t// out\n        /* \"#utility.yul\":1359:1481   */\n    tag_49:\n        /* \"#utility.yul\":1432:1456   */\n      tag_80\n        /* \"#utility.yul\":1450:1455   */\n      dup2\n        /* \"#utility.yul\":1432:1456   */\n      tag_48\n      jump\t// in\n    tag_80:\n        /* \"#utility.yul\":1425:1430   */\n      dup2\n        /* \"#utility.yul\":1422:1457   */\n      eq\n        /* \"#utility.yul\":1412:1475   */\n      tag_81\n      jumpi\n        /* \"#utility.yul\":1471:1472   */\n      0x00\n        /* \"#utility.yul\":1468:1469   */\n      dup1\n        /* \"#utility.yul\":1461:1473   */\n      revert\n        /* \"#utility.yul\":1412:1475   */\n    tag_81:\n        /* \"#utility.yul\":1359:1481   */\n      pop\n      jump\t// out\n        /* \"#utility.yul\":1487:1626   */\n    tag_50:\n        /* \"#utility.yul\":1533:1538   */\n      0x00\n        /* \"#utility.yul\":1571:1577   */\n      dup2\n        /* \"#utility.yul\":1558:1578   */\n      calldataload\n        /* \"#utility.yul\":1549:1578   */\n      swap1\n      pop\n        /* \"#utility.yul\":1587:1620   */\n      tag_83\n        /* \"#utility.yul\":1614:1619   */\n      dup2\n        /* \"#utility.yul\":1587:1620   */\n      tag_49\n      jump\t// in\n    tag_83:\n        /* \"#utility.yul\":1487:1626   */\n      swap3\n      swap2\n      pop\n      pop\n      jump\t// out\n        /* \"#utility.yul\":1632:1758   */\n    tag_51:\n        /* \"#utility.yul\":1669:1676   */\n      0x00\n        /* \"#utility.yul\":1709:1751   */\n      0xffffffffffffffffffffffffffffffffffffffff\n        /* \"#utility.yul\":1702:1707   */\n      dup3\n        /* \"#utility.yul\":1698:1752   */\n      and\n        /* \"#utility.yul\":1687:1752   */\n      swap1\n      pop\n        /* \"#utility.yul\":1632:1758   */\n      swap2\n      swap1\n      pop\n      jump\t// out\n        /* \"#utility.yul\":1764:1860   */\n    tag_52:\n        /* \"#utility.yul\":1801:1808   */\n      0x00\n        /* \"#utility.yul\":1830:1854   */\n      tag_86\n        /* \"#utility.yul\":1848:1853   */\n      dup3\n        /* \"#utility.yul\":1830:1854   */\n      tag_51\n      jump\t// in\n    tag_86:\n        /* \"#utility.yul\":1819:1854   */\n      swap1\n      pop\n        /* \"#utility.yul\":1764:1860   */\n      swap2\n      swap1\n      pop\n      jump\t// out\n        /* \"#utility.yul\":1866:1988   */\n    tag_53:\n        /* \"#utility.yul\":1939:1963   */\n      tag_88\n        /* \"#utility.yul\":1957:1962   */\n      dup2\n        /* \"#utility.yul\":1939:1963   */\n      tag_52\n      jump\t// in\n    tag_88:\n        /* \"#utility.yul\":1932:1937   */\n      dup2\n        /* \"#utility.yul\":1929:1964   */\n      eq\n        /* \"#utility.yul\":1919:1982   */\n      tag_89\n      jumpi\n        /* \"#utility.yul\":1978:1979   */\n      0x00\n        /* \"#utility.yul\":1975:1976   */\n      dup1\n        /* \"#utility.yul\":1968:1980   */\n      revert\n        /* \"#utility.yul\":1919:1982   */\n    tag_89:\n        /* \"#utility.yul\":1866:1988   */\n      pop\n      jump\t// out\n        /* \"#utility.yul\":1994:2133   */\n    tag_54:\n        /* \"#utility.yul\":2040:2045   */\n      0x00\n        /* \"#utility.yul\":2078:2084   */\n      dup2\n        /* \"#utility.yul\":2065:2085   */\n      calldataload\n        /* \"#utility.yul\":2056:2085   */\n      swap1\n      pop\n        /* \"#utility.yul\":2094:2127   */\n      tag_91\n        /* \"#utility.yul\":2121:2126   */\n      dup2\n        /* \"#utility.yul\":2094:2127   */\n      tag_53\n      jump\t// in\n    tag_91:\n        /* \"#utility.yul\":1994:2133   */\n      swap3\n      swap2\n      pop\n      pop\n      jump\t// out\n        /* \"#utility.yul\":2139:3996   */\n    tag_7:\n        /* \"#utility.yul\":2291:2297   */\n      0x00\n        /* \"#utility.yul\":2299:2305   */\n      dup1\n        /* \"#utility.yul\":2307:2313   */\n      0x00\n        /* \"#utility.yul\":2315:2321   */\n      dup1\n        /* \"#utility.yul\":2323:2329   */\n      0x00\n        /* \"#utility.yul\":2331:2337   */\n      dup1\n        /* \"#utility.yul\":2339:2345   */\n      0x00\n        /* \"#utility.yul\":2347:2353   */\n      dup1\n        /* \"#utility.yul\":2355:2361   */\n      0x00\n        /* \"#utility.yul\":2363:2369   */\n      dup1\n        /* \"#utility.yul\":2412:2415   */\n      0xc0\n        /* \"#utility.yul\":2400:2409   */\n      dup12\n        /* \"#utility.yul\":2391:2398   */\n      dup14\n        /* \"#utility.yul\":2387:2410   */\n      sub\n        /* \"#utility.yul\":2383:2416   */\n      slt\n        /* \"#utility.yul\":2380:2500   */\n      iszero\n      tag_93\n      jumpi\n        /* \"#utility.yul\":2419:2498   */\n      tag_94\n      tag_42\n      jump\t// in\n    tag_94:\n        /* \"#utility.yul\":2380:2500   */\n    tag_93:\n        /* \"#utility.yul\":2567:2568   */\n      0x00\n        /* \"#utility.yul\":2556:2565   */\n      dup12\n        /* \"#utility.yul\":2552:2569   */\n      add\n        /* \"#utility.yul\":2539:2570   */\n      calldataload\n        /* \"#utility.yul\":2597:2615   */\n      0xffffffffffffffff\n        /* \"#utility.yul\":2589:2595   */\n      dup2\n        /* \"#utility.yul\":2586:2616   */\n      gt\n        /* \"#utility.yul\":2583:2700   */\n      iszero\n      tag_95\n      jumpi\n        /* \"#utility.yul\":2619:2698   */\n      tag_96\n      tag_43\n      jump\t// in\n    tag_96:\n        /* \"#utility.yul\":2583:2700   */\n    tag_95:\n        /* \"#utility.yul\":2732:2797   */\n      tag_97\n        /* \"#utility.yul\":2789:2796   */\n      dup14\n        /* \"#utility.yul\":2780:2786   */\n      dup3\n        /* \"#utility.yul\":2769:2778   */\n      dup15\n        /* \"#utility.yul\":2765:2787   */\n      add\n        /* \"#utility.yul\":2732:2797   */\n      tag_47\n      jump\t// in\n    tag_97:\n        /* \"#utility.yul\":2714:2797   */\n      swap11\n      pop\n      swap11\n      pop\n        /* \"#utility.yul\":2510:2807   */\n      pop\n        /* \"#utility.yul\":2874:2876   */\n      0x20\n        /* \"#utility.yul\":2863:2872   */\n      dup12\n        /* \"#utility.yul\":2859:2877   */\n      add\n        /* \"#utility.yul\":2846:2878   */\n      calldataload\n        /* \"#utility.yul\":2905:2923   */\n      0xffffffffffffffff\n        /* \"#utility.yul\":2897:2903   */\n      dup2\n        /* \"#utility.yul\":2894:2924   */\n      gt\n        /* \"#utility.yul\":2891:3008   */\n      iszero\n      tag_98\n      jumpi\n        /* \"#utility.yul\":2927:3006   */\n      tag_99\n      tag_43\n      jump\t// in\n    tag_99:\n        /* \"#utility.yul\":2891:3008   */\n    tag_98:\n        /* \"#utility.yul\":3040:3105   */\n      tag_100\n        /* \"#utility.yul\":3097:3104   */\n      dup14\n        /* \"#utility.yul\":3088:3094   */\n      dup3\n        /* \"#utility.yul\":3077:3086   */\n      dup15\n        /* \"#utility.yul\":3073:3095   */\n      add\n        /* \"#utility.yul\":3040:3105   */\n      tag_47\n      jump\t// in\n    tag_100:\n        /* \"#utility.yul\":3022:3105   */\n      swap9\n      pop\n      swap9\n      pop\n        /* \"#utility.yul\":2817:3115   */\n      pop\n        /* \"#utility.yul\":3154:3156   */\n      0x40\n        /* \"#utility.yul\":3180:3233   */\n      tag_101\n        /* \"#utility.yul\":3225:3232   */\n      dup14\n        /* \"#utility.yul\":3216:3222   */\n      dup3\n        /* \"#utility.yul\":3205:3214   */\n      dup15\n        /* \"#utility.yul\":3201:3223   */\n      add\n        /* \"#utility.yul\":3180:3233   */\n      tag_50\n      jump\t// in\n    tag_101:\n        /* \"#utility.yul\":3170:3233   */\n      swap7\n      pop\n        /* \"#utility.yul\":3125:3243   */\n      pop\n        /* \"#utility.yul\":3282:3284   */\n      0x60\n        /* \"#utility.yul\":3308:3361   */\n      tag_102\n        /* \"#utility.yul\":3353:3360   */\n      dup14\n        /* \"#utility.yul\":3344:3350   */\n      dup3\n        /* \"#utility.yul\":3333:3342   */\n      dup15\n        /* \"#utility.yul\":3329:3351   */\n      add\n        /* \"#utility.yul\":3308:3361   */\n      tag_54\n      jump\t// in\n    tag_102:\n        /* \"#utility.yul\":3298:3361   */\n      swap6\n      pop\n        /* \"#utility.yul\":3253:3371   */\n      pop\n        /* \"#utility.yul\":3438:3441   */\n      0x80\n        /* \"#utility.yul\":3427:3436   */\n      dup12\n        /* \"#utility.yul\":3423:3442   */\n      add\n        /* \"#utility.yul\":3410:3443   */\n      calldataload\n        /* \"#utility.yul\":3470:3488   */\n      0xffffffffffffffff\n        /* \"#utility.yul\":3462:3468   */\n      dup2\n        /* \"#utility.yul\":3459:3489   */\n      gt\n        /* \"#utility.yul\":3456:3573   */\n      iszero\n      tag_103\n      jumpi\n        /* \"#utility.yul\":3492:3571   */\n      tag_104\n      tag_43\n      jump\t// in\n    tag_104:\n        /* \"#utility.yul\":3456:3573   */\n    tag_103:\n        /* \"#utility.yul\":3605:3670   */\n      tag_105\n        /* \"#utility.yul\":3662:3669   */\n      dup14\n        /* \"#utility.yul\":3653:3659   */\n      dup3\n        /* \"#utility.yul\":3642:3651   */\n      dup15\n        /* \"#utility.yul\":3638:3660   */\n      add\n        /* \"#utility.yul\":3605:3670   */\n      tag_47\n      jump\t// in\n    tag_105:\n        /* \"#utility.yul\":3587:3670   */\n      swap5\n      pop\n      swap5\n      pop\n        /* \"#utility.yul\":3381:3680   */\n      pop\n        /* \"#utility.yul\":3747:3750   */\n      0xa0\n        /* \"#utility.yul\":3736:3745   */\n      dup12\n        /* \"#utility.yul\":3732:3751   */\n      add\n        /* \"#utility.yul\":3719:3752   */\n      calldataload\n        /* \"#utility.yul\":3779:3797   */\n      0xffffffffffffffff\n        /* \"#utility.yul\":3771:3777   */\n      dup2\n        /* \"#utility.yul\":3768:3798   */\n      gt\n        /* \"#utility.yul\":3765:3882   */\n      iszero\n      tag_106\n      jumpi\n        /* \"#utility.yul\":3801:3880   */\n      tag_107\n      tag_43\n      jump\t// in\n    tag_107:\n        /* \"#utility.yul\":3765:3882   */\n    tag_106:\n        /* \"#utility.yul\":3914:3979   */\n      tag_108\n        /* \"#utility.yul\":3971:3978   */\n      dup14\n        /* \"#utility.yul\":3962:3968   */\n      dup3\n        /* \"#utility.yul\":3951:3960   */\n      dup15\n        /* \"#utility.yul\":3947:3969   */\n      add\n        /* \"#utility.yul\":3914:3979   */\n      tag_47\n      jump\t// in\n    tag_108:\n        /* \"#utility.yul\":3896:3979   */\n      swap3\n      pop\n      swap3\n      pop\n        /* \"#utility.yul\":3690:3989   */\n      pop\n        /* \"#utility.yul\":2139:3996   */\n      swap3\n      swap6\n      swap9\n      swap12\n      swap2\n      swap5\n      swap8\n      swap11\n      pop\n      swap3\n      swap6\n      swap9\n      pop\n      jump\t// out\n        /* \"#utility.yul\":4002:4120   */\n    tag_55:\n        /* \"#utility.yul\":4089:4113   */\n      tag_110\n        /* \"#utility.yul\":4107:4112   */\n      dup2\n        /* \"#utility.yul\":4089:4113   */\n      tag_52\n      jump\t// in\n    tag_110:\n        /* \"#utility.yul\":4084:4087   */\n      dup3\n        /* \"#utility.yul\":4077:4114   */\n      mstore\n        /* \"#utility.yul\":4002:4120   */\n      pop\n      pop\n      jump\t// out\n        /* \"#utility.yul\":4126:4348   */\n    tag_13:\n        /* \"#utility.yul\":4219:4223   */\n      0x00\n        /* \"#utility.yul\":4257:4259   */\n      0x20\n        /* \"#utility.yul\":4246:4255   */\n      dup3\n        /* \"#utility.yul\":4242:4260   */\n      add\n        /* \"#utility.yul\":4234:4260   */\n      swap1\n      pop\n        /* \"#utility.yul\":4270:4341   */\n      tag_112\n        /* \"#utility.yul\":4338:4339   */\n      0x00\n        /* \"#utility.yul\":4327:4336   */\n      dup4\n        /* \"#utility.yul\":4323:4340   */\n      add\n        /* \"#utility.yul\":4314:4320   */\n      dup5\n        /* \"#utility.yul\":4270:4341   */\n      tag_55\n      jump\t// in\n    tag_112:\n        /* \"#utility.yul\":4126:4348   */\n      swap3\n      swap2\n      pop\n      pop\n      jump\t// out\n        /* \"#utility.yul\":4354:4683   */\n    tag_17:\n        /* \"#utility.yul\":4413:4419   */\n      0x00\n        /* \"#utility.yul\":4462:4464   */\n      0x20\n        /* \"#utility.yul\":4450:4459   */\n      dup3\n        /* \"#utility.yul\":4441:4448   */\n      dup5\n        /* \"#utility.yul\":4437:4460   */\n      sub\n        /* \"#utility.yul\":4433:4465   */\n      slt\n        /* \"#utility.yul\":4430:4549   */\n      iszero\n      tag_114\n      jumpi\n        /* \"#utility.yul\":4468:4547   */\n      tag_115\n      tag_42\n      jump\t// in\n    tag_115:\n        /* \"#utility.yul\":4430:4549   */\n    tag_114:\n        /* \"#utility.yul\":4588:4589   */\n      0x00\n        /* \"#utility.yul\":4613:4666   */\n      tag_116\n        /* \"#utility.yul\":4658:4665   */\n      dup5\n        /* \"#utility.yul\":4649:4655   */\n      dup3\n        /* \"#utility.yul\":4638:4647   */\n      dup6\n        /* \"#utility.yul\":4634:4656   */\n      add\n        /* \"#utility.yul\":4613:4666   */\n      tag_50\n      jump\t// in\n    tag_116:\n        /* \"#utility.yul\":4603:4666   */\n      swap2\n      pop\n        /* \"#utility.yul\":4559:4676   */\n      pop\n        /* \"#utility.yul\":4354:4683   */\n      swap3\n      swap2\n      pop\n      pop\n      jump\t// out\n        /* \"#utility.yul\":4689:4858   */\n    tag_56:\n        /* \"#utility.yul\":4773:4784   */\n      0x00\n        /* \"#utility.yul\":4807:4813   */\n      dup3\n        /* \"#utility.yul\":4802:4805   */\n      dup3\n        /* \"#utility.yul\":4795:4814   */\n      mstore\n        /* \"#utility.yul\":4847:4851   */\n      0x20\n        /* \"#utility.yul\":4842:4845   */\n      dup3\n        /* \"#utility.yul\":4838:4852   */\n      add\n        /* \"#utility.yul\":4823:4852   */\n      swap1\n      pop\n        /* \"#utility.yul\":4689:4858   */\n      swap3\n      swap2\n      pop\n      pop\n      jump\t// out\n        /* \"#utility.yul\":4864:5031   */\n    tag_57:\n        /* \"#utility.yul\":5004:5023   */\n      0x73656e742066756c6c207061796d656e74000000000000000000000000000000\n        /* \"#utility.yul\":5000:5001   */\n      0x00\n        /* \"#utility.yul\":4992:4998   */\n      dup3\n        /* \"#utility.yul\":4988:5002   */\n      add\n        /* \"#utility.yul\":4981:5024   */\n      mstore\n        /* \"#utility.yul\":4864:5031   */\n      pop\n      jump\t// out\n        /* \"#utility.yul\":5037:5403   */\n    tag_58:\n        /* \"#utility.yul\":5179:5182   */\n      0x00\n        /* \"#utility.yul\":5200:5267   */\n      tag_120\n        /* \"#utility.yul\":5264:5266   */\n      0x11\n        /* \"#utility.yul\":5259:5262   */\n      dup4\n        /* \"#utility.yul\":5200:5267   */\n      tag_56\n      jump\t// in\n    tag_120:\n        /* \"#utility.yul\":5193:5267   */\n      swap2\n      pop\n        /* \"#utility.yul\":5276:5369   */\n      tag_121\n        /* \"#utility.yul\":5365:5368   */\n      dup3\n        /* \"#utility.yul\":5276:5369   */\n      tag_57\n      jump\t// in\n    tag_121:\n        /* \"#utility.yul\":5394:5396   */\n      0x20\n        /* \"#utility.yul\":5389:5392   */\n      dup3\n        /* \"#utility.yul\":5385:5397   */\n      add\n        /* \"#utility.yul\":5378:5397   */\n      swap1\n      pop\n        /* \"#utility.yul\":5037:5403   */\n      swap2\n      swap1\n      pop\n      jump\t// out\n        /* \"#utility.yul\":5409:5828   */\n    tag_23:\n        /* \"#utility.yul\":5575:5579   */\n      0x00\n        /* \"#utility.yul\":5613:5615   */\n      0x20\n        /* \"#utility.yul\":5602:5611   */\n      dup3\n        /* \"#utility.yul\":5598:5616   */\n      add\n        /* \"#utility.yul\":5590:5616   */\n      swap1\n      pop\n        /* \"#utility.yul\":5662:5671   */\n      dup2\n        /* \"#utility.yul\":5656:5660   */\n      dup2\n        /* \"#utility.yul\":5652:5672   */\n      sub\n        /* \"#utility.yul\":5648:5649   */\n      0x00\n        /* \"#utility.yul\":5637:5646   */\n      dup4\n        /* \"#utility.yul\":5633:5650   */\n      add\n        /* \"#utility.yul\":5626:5673   */\n      mstore\n        /* \"#utility.yul\":5690:5821   */\n      tag_123\n        /* \"#utility.yul\":5816:5820   */\n      dup2\n        /* \"#utility.yul\":5690:5821   */\n      tag_58\n      jump\t// in\n    tag_123:\n        /* \"#utility.yul\":5682:5821   */\n      swap1\n      pop\n        /* \"#utility.yul\":5409:5828   */\n      swap2\n      swap1\n      pop\n      jump\t// out\n        /* \"#utility.yul\":5834:5988   */\n    tag_59:\n        /* \"#utility.yul\":5918:5924   */\n      dup3\n        /* \"#utility.yul\":5913:5916   */\n      dup2\n        /* \"#utility.yul\":5908:5911   */\n      dup4\n        /* \"#utility.yul\":5895:5925   */\n      calldatacopy\n        /* \"#utility.yul\":5980:5981   */\n      0x00\n        /* \"#utility.yul\":5971:5977   */\n      dup4\n        /* \"#utility.yul\":5966:5969   */\n      dup4\n        /* \"#utility.yul\":5962:5978   */\n      add\n        /* \"#utility.yul\":5955:5982   */\n      mstore\n        /* \"#utility.yul\":5834:5988   */\n      pop\n      pop\n      pop\n      jump\t// out\n        /* \"#utility.yul\":5994:6096   */\n    tag_60:\n        /* \"#utility.yul\":6035:6041   */\n      0x00\n        /* \"#utility.yul\":6086:6088   */\n      0x1f\n        /* \"#utility.yul\":6082:6089   */\n      not\n        /* \"#utility.yul\":6077:6079   */\n      0x1f\n        /* \"#utility.yul\":6070:6075   */\n      dup4\n        /* \"#utility.yul\":6066:6080   */\n      add\n        /* \"#utility.yul\":6062:6090   */\n      and\n        /* \"#utility.yul\":6052:6090   */\n      swap1\n      pop\n        /* \"#utility.yul\":5994:6096   */\n      swap2\n      swap1\n      pop\n      jump\t// out\n        /* \"#utility.yul\":6126:6430   */\n    tag_61:\n        /* \"#utility.yul\":6224:6227   */\n      0x00\n        /* \"#utility.yul\":6245:6316   */\n      tag_127\n        /* \"#utility.yul\":6309:6315   */\n      dup4\n        /* \"#utility.yul\":6304:6307   */\n      dup6\n        /* \"#utility.yul\":6245:6316   */\n      tag_56\n      jump\t// in\n    tag_127:\n        /* \"#utility.yul\":6238:6316   */\n      swap4\n      pop\n        /* \"#utility.yul\":6326:6369   */\n      tag_128\n        /* \"#utility.yul\":6362:6368   */\n      dup4\n        /* \"#utility.yul\":6357:6360   */\n      dup6\n        /* \"#utility.yul\":6350:6355   */\n      dup5\n        /* \"#utility.yul\":6326:6369   */\n      tag_59\n      jump\t// in\n    tag_128:\n        /* \"#utility.yul\":6394:6423   */\n      tag_129\n        /* \"#utility.yul\":6416:6422   */\n      dup4\n        /* \"#utility.yul\":6394:6423   */\n      tag_60\n      jump\t// in\n    tag_129:\n        /* \"#utility.yul\":6389:6392   */\n      dup5\n        /* \"#utility.yul\":6385:6424   */\n      add\n        /* \"#utility.yul\":6378:6424   */\n      swap1\n      pop\n        /* \"#utility.yul\":6126:6430   */\n      swap4\n      swap3\n      pop\n      pop\n      pop\n      jump\t// out\n        /* \"#utility.yul\":6436:6554   */\n    tag_62:\n        /* \"#utility.yul\":6523:6547   */\n      tag_131\n        /* \"#utility.yul\":6541:6546   */\n      dup2\n        /* \"#utility.yul\":6523:6547   */\n      tag_48\n      jump\t// in\n    tag_131:\n        /* \"#utility.yul\":6518:6521   */\n      dup3\n        /* \"#utility.yul\":6511:6548   */\n      mstore\n        /* \"#utility.yul\":6436:6554   */\n      pop\n      pop\n      jump\t// out\n        /* \"#utility.yul\":6560:7779   */\n    tag_27:\n        /* \"#utility.yul\":6913:6917   */\n      0x00\n        /* \"#utility.yul\":6951:6954   */\n      0xc0\n        /* \"#utility.yul\":6940:6949   */\n      dup3\n        /* \"#utility.yul\":6936:6955   */\n      add\n        /* \"#utility.yul\":6928:6955   */\n      swap1\n      pop\n        /* \"#utility.yul\":7001:7010   */\n      dup2\n        /* \"#utility.yul\":6995:6999   */\n      dup2\n        /* \"#utility.yul\":6991:7011   */\n      sub\n        /* \"#utility.yul\":6987:6988   */\n      0x00\n        /* \"#utility.yul\":6976:6985   */\n      dup4\n        /* \"#utility.yul\":6972:6989   */\n      add\n        /* \"#utility.yul\":6965:7012   */\n      mstore\n        /* \"#utility.yul\":7029:7117   */\n      tag_133\n        /* \"#utility.yul\":7112:7116   */\n      dup2\n        /* \"#utility.yul\":7103:7109   */\n      dup13\n        /* \"#utility.yul\":7095:7101   */\n      dup15\n        /* \"#utility.yul\":7029:7117   */\n      tag_61\n      jump\t// in\n    tag_133:\n        /* \"#utility.yul\":7021:7117   */\n      swap1\n      pop\n        /* \"#utility.yul\":7164:7173   */\n      dup2\n        /* \"#utility.yul\":7158:7162   */\n      dup2\n        /* \"#utility.yul\":7154:7174   */\n      sub\n        /* \"#utility.yul\":7149:7151   */\n      0x20\n        /* \"#utility.yul\":7138:7147   */\n      dup4\n        /* \"#utility.yul\":7134:7152   */\n      add\n        /* \"#utility.yul\":7127:7175   */\n      mstore\n        /* \"#utility.yul\":7192:7280   */\n      tag_134\n        /* \"#utility.yul\":7275:7279   */\n      dup2\n        /* \"#utility.yul\":7266:7272   */\n      dup11\n        /* \"#utility.yul\":7258:7264   */\n      dup13\n        /* \"#utility.yul\":7192:7280   */\n      tag_61\n      jump\t// in\n    tag_134:\n        /* \"#utility.yul\":7184:7280   */\n      swap1\n      pop\n        /* \"#utility.yul\":7290:7362   */\n      tag_135\n        /* \"#utility.yul\":7358:7360   */\n      0x40\n        /* \"#utility.yul\":7347:7356   */\n      dup4\n        /* \"#utility.yul\":7343:7361   */\n      add\n        /* \"#utility.yul\":7334:7340   */\n      dup10\n        /* \"#utility.yul\":7290:7362   */\n      tag_62\n      jump\t// in\n    tag_135:\n        /* \"#utility.yul\":7372:7444   */\n      tag_136\n        /* \"#utility.yul\":7440:7442   */\n      0x60\n        /* \"#utility.yul\":7429:7438   */\n      dup4\n        /* \"#utility.yul\":7425:7443   */\n      add\n        /* \"#utility.yul\":7416:7422   */\n      dup9\n        /* \"#utility.yul\":7372:7444   */\n      tag_55\n      jump\t// in\n    tag_136:\n        /* \"#utility.yul\":7492:7501   */\n      dup2\n        /* \"#utility.yul\":7486:7490   */\n      dup2\n        /* \"#utility.yul\":7482:7502   */\n      sub\n        /* \"#utility.yul\":7476:7479   */\n      0x80\n        /* \"#utility.yul\":7465:7474   */\n      dup4\n        /* \"#utility.yul\":7461:7480   */\n      add\n        /* \"#utility.yul\":7454:7503   */\n      mstore\n        /* \"#utility.yul\":7520:7608   */\n      tag_137\n        /* \"#utility.yul\":7603:7607   */\n      dup2\n        /* \"#utility.yul\":7594:7600   */\n      dup7\n        /* \"#utility.yul\":7586:7592   */\n      dup9\n        /* \"#utility.yul\":7520:7608   */\n      tag_61\n      jump\t// in\n    tag_137:\n        /* \"#utility.yul\":7512:7608   */\n      swap1\n      pop\n        /* \"#utility.yul\":7656:7665   */\n      dup2\n        /* \"#utility.yul\":7650:7654   */\n      dup2\n        /* \"#utility.yul\":7646:7666   */\n      sub\n        /* \"#utility.yul\":7640:7643   */\n      0xa0\n        /* \"#utility.yul\":7629:7638   */\n      dup4\n        /* \"#utility.yul\":7625:7644   */\n      add\n        /* \"#utility.yul\":7618:7667   */\n      mstore\n        /* \"#utility.yul\":7684:7772   */\n      tag_138\n        /* \"#utility.yul\":7767:7771   */\n      dup2\n        /* \"#utility.yul\":7758:7764   */\n      dup5\n        /* \"#utility.yul\":7750:7756   */\n      dup7\n        /* \"#utility.yul\":7684:7772   */\n      tag_61\n      jump\t// in\n    tag_138:\n        /* \"#utility.yul\":7676:7772   */\n      swap1\n      pop\n        /* \"#utility.yul\":6560:7779   */\n      swap12\n      swap11\n      pop\n      pop\n      pop\n      pop\n      pop\n      pop\n      pop\n      pop\n      pop\n      pop\n      pop\n      jump\t// out\n        /* \"#utility.yul\":7785:7965   */\n    tag_63:\n        /* \"#utility.yul\":7833:7910   */\n      0x4e487b7100000000000000000000000000000000000000000000000000000000\n        /* \"#utility.yul\":7830:7831   */\n      0x00\n        /* \"#utility.yul\":7823:7911   */\n      mstore\n        /* \"#utility.yul\":7930:7934   */\n      0x11\n        /* \"#utility.yul\":7927:7928   */\n      0x04\n        /* \"#utility.yul\":7920:7935   */\n      mstore\n        /* \"#utility.yul\":7954:7958   */\n      0x24\n        /* \"#utility.yul\":7951:7952   */\n      0x00\n        /* \"#utility.yul\":7944:7959   */\n      revert\n        /* \"#utility.yul\":7971:8162   */\n    tag_34:\n        /* \"#utility.yul\":8011:8015   */\n      0x00\n        /* \"#utility.yul\":8031:8051   */\n      tag_141\n        /* \"#utility.yul\":8049:8050   */\n      dup3\n        /* \"#utility.yul\":8031:8051   */\n      tag_48\n      jump\t// in\n    tag_141:\n        /* \"#utility.yul\":8026:8051   */\n      swap2\n      pop\n        /* \"#utility.yul\":8065:8085   */\n      tag_142\n        /* \"#utility.yul\":8083:8084   */\n      dup4\n        /* \"#utility.yul\":8065:8085   */\n      tag_48\n      jump\t// in\n    tag_142:\n        /* \"#utility.yul\":8060:8085   */\n      swap3\n      pop\n        /* \"#utility.yul\":8104:8105   */\n      dup3\n        /* \"#utility.yul\":8101:8102   */\n      dup3\n        /* \"#utility.yul\":8098:8106   */\n      lt\n        /* \"#utility.yul\":8095:8129   */\n      iszero\n      tag_143\n      jumpi\n        /* \"#utility.yul\":8109:8127   */\n      tag_144\n      tag_63\n      jump\t// in\n    tag_144:\n        /* \"#utility.yul\":8095:8129   */\n    tag_143:\n        /* \"#utility.yul\":8154:8155   */\n      dup3\n        /* \"#utility.yul\":8151:8152   */\n      dup3\n        /* \"#utility.yul\":8147:8156   */\n      sub\n        /* \"#utility.yul\":8139:8156   */\n      swap1\n      pop\n        /* \"#utility.yul\":7971:8162   */\n      swap3\n      swap2\n      pop\n      pop\n      jump\t// out\n        /* \"#utility.yul\":8168:8348   */\n    tag_37:\n        /* \"#utility.yul\":8216:8293   */\n      0x4e487b7100000000000000000000000000000000000000000000000000000000\n        /* \"#utility.yul\":8213:8214   */\n      0x00\n        /* \"#utility.yul\":8206:8294   */\n      mstore\n        /* \"#utility.yul\":8313:8317   */\n      0x32\n        /* \"#utility.yul\":8310:8311   */\n      0x04\n        /* \"#utility.yul\":8303:8318   */\n      mstore\n        /* \"#utility.yul\":8337:8341   */\n      0x24\n        /* \"#utility.yul\":8334:8335   */\n      0x00\n        /* \"#utility.yul\":8327:8342   */\n      revert\n    stop\n\n    sub_0: assembly {\n            /* \"Auctioninfo.sol\":790:1593  contract FundRaiser {... */\n          mstore(0x40, 0x80)\n            /* \"Auctioninfo.sol\":979:1271  constructor(... */\n          callvalue\n          dup1\n          iszero\n          tag_1\n          jumpi\n          0x00\n          dup1\n          revert\n        tag_1:\n          pop\n          mload(0x40)\n          sub(codesize, bytecodeSize)\n          dup1\n          bytecodeSize\n          dup4\n          codecopy\n          dup2\n          dup2\n          add\n          0x40\n          mstore\n          dup2\n          add\n          swap1\n          tag_2\n          swap2\n          swap1\n          tag_3\n          jump\t// in\n        tag_2:\n            /* \"Auctioninfo.sol\":1161:1162  n */\n          dup6\n            /* \"Auctioninfo.sol\":1154:1158  name */\n          0x00\n            /* \"Auctioninfo.sol\":1154:1162  name = n */\n          swap1\n          dup1\n          mload\n          swap1\n          0x20\n          add\n          swap1\n          tag_6\n          swap3\n          swap2\n          swap1\n          tag_7\n          jump\t// in\n        tag_6:\n          pop\n            /* \"Auctioninfo.sol\":1181:1182  i */\n          dup5\n            /* \"Auctioninfo.sol\":1173:1178  image */\n          0x01\n            /* \"Auctioninfo.sol\":1173:1182  image = i */\n          swap1\n          dup1\n          mload\n          swap1\n          0x20\n          add\n          swap1\n          tag_8\n          swap3\n          swap2\n          swap1\n          tag_7\n          jump\t// in\n        tag_8:\n          pop\n            /* \"Auctioninfo.sol\":1201:1202  b */\n          dup2\n            /* \"Auctioninfo.sol\":1193:1198  buyer */\n          0x02\n            /* \"Auctioninfo.sol\":1193:1202  buyer = b */\n          swap1\n          dup1\n          mload\n          swap1\n          0x20\n          add\n          swap1\n          tag_9\n          swap3\n          swap2\n          swap1\n          tag_7\n          jump\t// in\n        tag_9:\n          pop\n            /* \"Auctioninfo.sol\":1222:1223  s */\n          dup1\n            /* \"Auctioninfo.sol\":1213:1219  seller */\n          0x03\n            /* \"Auctioninfo.sol\":1213:1223  seller = s */\n          swap1\n          dup1\n          mload\n          swap1\n          0x20\n          add\n          swap1\n          tag_10\n          swap3\n          swap2\n          swap1\n          tag_7\n          jump\t// in\n        tag_10:\n          pop\n            /* \"Auctioninfo.sol\":1242:1243  v */\n          dup4\n            /* \"Auctioninfo.sol\":1234:1239  value */\n          0x04\n            /* \"Auctioninfo.sol\":1234:1243  value = v */\n          dup2\n          swap1\n          sstore\n          pop\n            /* \"Auctioninfo.sol\":1262:1263  a */\n          dup3\n            /* \"Auctioninfo.sol\":1254:1261  account */\n          0x05\n          0x00\n            /* \"Auctioninfo.sol\":1254:1263  account=a */\n          0x0100\n          exp\n          dup2\n          sload\n          dup2\n          0xffffffffffffffffffffffffffffffffffffffff\n          mul\n          not\n          and\n          swap1\n          dup4\n          0xffffffffffffffffffffffffffffffffffffffff\n          and\n          mul\n          or\n          swap1\n          sstore\n          pop\n            /* \"Auctioninfo.sol\":979:1271  constructor(... */\n          pop\n          pop\n          pop\n          pop\n          pop\n          pop\n            /* \"Auctioninfo.sol\":790:1593  contract FundRaiser {... */\n          jump(tag_11)\n        tag_7:\n          dup3\n          dup1\n          sload\n          tag_12\n          swap1\n          tag_13\n          jump\t// in\n        tag_12:\n          swap1\n          0x00\n          mstore\n          keccak256(0x00, 0x20)\n          swap1\n          0x1f\n          add\n          0x20\n          swap1\n          div\n          dup2\n          add\n          swap3\n          dup3\n          tag_15\n          jumpi\n          0x00\n          dup6\n          sstore\n          jump(tag_14)\n        tag_15:\n          dup3\n          0x1f\n          lt\n          tag_16\n          jumpi\n          dup1\n          mload\n          not(0xff)\n          and\n          dup4\n          dup1\n          add\n          or\n          dup6\n          sstore\n          jump(tag_14)\n        tag_16:\n          dup3\n          dup1\n          add\n          0x01\n          add\n          dup6\n          sstore\n          dup3\n          iszero\n          tag_14\n          jumpi\n          swap2\n          dup3\n          add\n        tag_17:\n          dup3\n          dup2\n          gt\n          iszero\n          tag_18\n          jumpi\n          dup3\n          mload\n          dup3\n          sstore\n          swap2\n          0x20\n          add\n          swap2\n          swap1\n          0x01\n          add\n          swap1\n          jump(tag_17)\n        tag_18:\n        tag_14:\n          pop\n          swap1\n          pop\n          tag_19\n          swap2\n          swap1\n          tag_20\n          jump\t// in\n        tag_19:\n          pop\n          swap1\n          jump\t// out\n        tag_20:\n        tag_21:\n          dup1\n          dup3\n          gt\n          iszero\n          tag_22\n          jumpi\n          0x00\n          dup2\n          0x00\n          swap1\n          sstore\n          pop\n          0x01\n          add\n          jump(tag_21)\n        tag_22:\n          pop\n          swap1\n          jump\t// out\n            /* \"#utility.yul\":7:82   */\n        tag_23:\n            /* \"#utility.yul\":40:46   */\n          0x00\n            /* \"#utility.yul\":73:75   */\n          0x40\n            /* \"#utility.yul\":67:76   */\n          mload\n            /* \"#utility.yul\":57:76   */\n          swap1\n          pop\n            /* \"#utility.yul\":7:82   */\n          swap1\n          jump\t// out\n            /* \"#utility.yul\":88:205   */\n        tag_24:\n            /* \"#utility.yul\":197:198   */\n          0x00\n            /* \"#utility.yul\":194:195   */\n          dup1\n            /* \"#utility.yul\":187:199   */\n          revert\n            /* \"#utility.yul\":211:328   */\n        tag_25:\n            /* \"#utility.yul\":320:321   */\n          0x00\n            /* \"#utility.yul\":317:318   */\n          dup1\n            /* \"#utility.yul\":310:322   */\n          revert\n            /* \"#utility.yul\":334:451   */\n        tag_26:\n            /* \"#utility.yul\":443:444   */\n          0x00\n            /* \"#utility.yul\":440:441   */\n          dup1\n            /* \"#utility.yul\":433:445   */\n          revert\n            /* \"#utility.yul\":457:574   */\n        tag_27:\n            /* \"#utility.yul\":566:567   */\n          0x00\n            /* \"#utility.yul\":563:564   */\n          dup1\n            /* \"#utility.yul\":556:568   */\n          revert\n            /* \"#utility.yul\":580:682   */\n        tag_28:\n            /* \"#utility.yul\":621:627   */\n          0x00\n            /* \"#utility.yul\":672:674   */\n          0x1f\n            /* \"#utility.yul\":668:675   */\n          not\n            /* \"#utility.yul\":663:665   */\n          0x1f\n            /* \"#utility.yul\":656:661   */\n          dup4\n            /* \"#utility.yul\":652:666   */\n          add\n            /* \"#utility.yul\":648:676   */\n          and\n            /* \"#utility.yul\":638:676   */\n          swap1\n          pop\n            /* \"#utility.yul\":580:682   */\n          swap2\n          swap1\n          pop\n          jump\t// out\n            /* \"#utility.yul\":688:868   */\n        tag_29:\n            /* \"#utility.yul\":736:813   */\n          0x4e487b7100000000000000000000000000000000000000000000000000000000\n            /* \"#utility.yul\":733:734   */\n          0x00\n            /* \"#utility.yul\":726:814   */\n          mstore\n            /* \"#utility.yul\":833:837   */\n          0x41\n            /* \"#utility.yul\":830:831   */\n          0x04\n            /* \"#utility.yul\":823:838   */\n          mstore\n            /* \"#utility.yul\":857:861   */\n          0x24\n            /* \"#utility.yul\":854:855   */\n          0x00\n            /* \"#utility.yul\":847:862   */\n          revert\n            /* \"#utility.yul\":874:1155   */\n        tag_30:\n            /* \"#utility.yul\":957:984   */\n          tag_53\n            /* \"#utility.yul\":979:983   */\n          dup3\n            /* \"#utility.yul\":957:984   */\n          tag_28\n          jump\t// in\n        tag_53:\n            /* \"#utility.yul\":949:955   */\n          dup2\n            /* \"#utility.yul\":945:985   */\n          add\n            /* \"#utility.yul\":1087:1093   */\n          dup2\n            /* \"#utility.yul\":1075:1085   */\n          dup2\n            /* \"#utility.yul\":1072:1094   */\n          lt\n            /* \"#utility.yul\":1051:1069   */\n          0xffffffffffffffff\n            /* \"#utility.yul\":1039:1049   */\n          dup3\n            /* \"#utility.yul\":1036:1070   */\n          gt\n            /* \"#utility.yul\":1033:1095   */\n          or\n            /* \"#utility.yul\":1030:1118   */\n          iszero\n          tag_54\n          jumpi\n            /* \"#utility.yul\":1098:1116   */\n          tag_55\n          tag_29\n          jump\t// in\n        tag_55:\n            /* \"#utility.yul\":1030:1118   */\n        tag_54:\n            /* \"#utility.yul\":1138:1148   */\n          dup1\n            /* \"#utility.yul\":1134:1136   */\n          0x40\n            /* \"#utility.yul\":1127:1149   */\n          mstore\n            /* \"#utility.yul\":917:1155   */\n          pop\n            /* \"#utility.yul\":874:1155   */\n          pop\n          pop\n          jump\t// out\n            /* \"#utility.yul\":1161:1290   */\n        tag_31:\n            /* \"#utility.yul\":1195:1201   */\n          0x00\n            /* \"#utility.yul\":1222:1242   */\n          tag_57\n          tag_23\n          jump\t// in\n        tag_57:\n            /* \"#utility.yul\":1212:1242   */\n          swap1\n          pop\n            /* \"#utility.yul\":1251:1284   */\n          tag_58\n            /* \"#utility.yul\":1279:1283   */\n          dup3\n            /* \"#utility.yul\":1271:1277   */\n          dup3\n            /* \"#utility.yul\":1251:1284   */\n          tag_30\n          jump\t// in\n        tag_58:\n            /* \"#utility.yul\":1161:1290   */\n          swap2\n          swap1\n          pop\n          jump\t// out\n            /* \"#utility.yul\":1296:1604   */\n        tag_32:\n            /* \"#utility.yul\":1358:1362   */\n          0x00\n            /* \"#utility.yul\":1448:1466   */\n          0xffffffffffffffff\n            /* \"#utility.yul\":1440:1446   */\n          dup3\n            /* \"#utility.yul\":1437:1467   */\n          gt\n            /* \"#utility.yul\":1434:1490   */\n          iszero\n          tag_60\n          jumpi\n            /* \"#utility.yul\":1470:1488   */\n          tag_61\n          tag_29\n          jump\t// in\n        tag_61:\n            /* \"#utility.yul\":1434:1490   */\n        tag_60:\n            /* \"#utility.yul\":1508:1537   */\n          tag_62\n            /* \"#utility.yul\":1530:1536   */\n          dup3\n            /* \"#utility.yul\":1508:1537   */\n          tag_28\n          jump\t// in\n        tag_62:\n            /* \"#utility.yul\":1500:1537   */\n          swap1\n          pop\n            /* \"#utility.yul\":1592:1596   */\n          0x20\n            /* \"#utility.yul\":1586:1590   */\n          dup2\n            /* \"#utility.yul\":1582:1597   */\n          add\n            /* \"#utility.yul\":1574:1597   */\n          swap1\n          pop\n            /* \"#utility.yul\":1296:1604   */\n          swap2\n          swap1\n          pop\n          jump\t// out\n            /* \"#utility.yul\":1610:1917   */\n        tag_33:\n            /* \"#utility.yul\":1678:1679   */\n          0x00\n            /* \"#utility.yul\":1688:1801   */\n        tag_64:\n            /* \"#utility.yul\":1702:1708   */\n          dup4\n            /* \"#utility.yul\":1699:1700   */\n          dup2\n            /* \"#utility.yul\":1696:1709   */\n          lt\n            /* \"#utility.yul\":1688:1801   */\n          iszero\n          tag_66\n          jumpi\n            /* \"#utility.yul\":1787:1788   */\n          dup1\n            /* \"#utility.yul\":1782:1785   */\n          dup3\n            /* \"#utility.yul\":1778:1789   */\n          add\n            /* \"#utility.yul\":1772:1790   */\n          mload\n            /* \"#utility.yul\":1768:1769   */\n          dup2\n            /* \"#utility.yul\":1763:1766   */\n          dup5\n            /* \"#utility.yul\":1759:1770   */\n          add\n            /* \"#utility.yul\":1752:1791   */\n          mstore\n            /* \"#utility.yul\":1724:1726   */\n          0x20\n            /* \"#utility.yul\":1721:1722   */\n          dup2\n            /* \"#utility.yul\":1717:1727   */\n          add\n            /* \"#utility.yul\":1712:1727   */\n          swap1\n          pop\n            /* \"#utility.yul\":1688:1801   */\n          jump(tag_64)\n        tag_66:\n            /* \"#utility.yul\":1819:1825   */\n          dup4\n            /* \"#utility.yul\":1816:1817   */\n          dup2\n            /* \"#utility.yul\":1813:1826   */\n          gt\n            /* \"#utility.yul\":1810:1911   */\n          iszero\n          tag_67\n          jumpi\n            /* \"#utility.yul\":1899:1900   */\n          0x00\n            /* \"#utility.yul\":1890:1896   */\n          dup5\n            /* \"#utility.yul\":1885:1888   */\n          dup5\n            /* \"#utility.yul\":1881:1897   */\n          add\n            /* \"#utility.yul\":1874:1901   */\n          mstore\n            /* \"#utility.yul\":1810:1911   */\n        tag_67:\n            /* \"#utility.yul\":1659:1917   */\n          pop\n            /* \"#utility.yul\":1610:1917   */\n          pop\n          pop\n          pop\n          jump\t// out\n            /* \"#utility.yul\":1923:2344   */\n        tag_34:\n            /* \"#utility.yul\":2012:2017   */\n          0x00\n            /* \"#utility.yul\":2037:2103   */\n          tag_69\n            /* \"#utility.yul\":2053:2102   */\n          tag_70\n            /* \"#utility.yul\":2095:2101   */\n          dup5\n            /* \"#utility.yul\":2053:2102   */\n          tag_32\n          jump\t// in\n        tag_70:\n            /* \"#utility.yul\":2037:2103   */\n          tag_31\n          jump\t// in\n        tag_69:\n            /* \"#utility.yul\":2028:2103   */\n          swap1\n          pop\n            /* \"#utility.yul\":2126:2132   */\n          dup3\n            /* \"#utility.yul\":2119:2124   */\n          dup2\n            /* \"#utility.yul\":2112:2133   */\n          mstore\n            /* \"#utility.yul\":2164:2168   */\n          0x20\n            /* \"#utility.yul\":2157:2162   */\n          dup2\n            /* \"#utility.yul\":2153:2169   */\n          add\n            /* \"#utility.yul\":2202:2205   */\n          dup5\n            /* \"#utility.yul\":2193:2199   */\n          dup5\n            /* \"#utility.yul\":2188:2191   */\n          dup5\n            /* \"#utility.yul\":2184:2200   */\n          add\n            /* \"#utility.yul\":2181:2206   */\n          gt\n            /* \"#utility.yul\":2178:2290   */\n          iszero\n          tag_71\n          jumpi\n            /* \"#utility.yul\":2209:2288   */\n          tag_72\n          tag_27\n          jump\t// in\n        tag_72:\n            /* \"#utility.yul\":2178:2290   */\n        tag_71:\n            /* \"#utility.yul\":2299:2338   */\n          tag_73\n            /* \"#utility.yul\":2331:2337   */\n          dup5\n            /* \"#utility.yul\":2326:2329   */\n          dup3\n            /* \"#utility.yul\":2321:2324   */\n          dup6\n            /* \"#utility.yul\":2299:2338   */\n          tag_33\n          jump\t// in\n        tag_73:\n            /* \"#utility.yul\":2018:2344   */\n          pop\n            /* \"#utility.yul\":1923:2344   */\n          swap4\n          swap3\n          pop\n          pop\n          pop\n          jump\t// out\n            /* \"#utility.yul\":2364:2719   */\n        tag_35:\n            /* \"#utility.yul\":2431:2436   */\n          0x00\n            /* \"#utility.yul\":2480:2483   */\n          dup3\n            /* \"#utility.yul\":2473:2477   */\n          0x1f\n            /* \"#utility.yul\":2465:2471   */\n          dup4\n            /* \"#utility.yul\":2461:2478   */\n          add\n            /* \"#utility.yul\":2457:2484   */\n          slt\n            /* \"#utility.yul\":2447:2569   */\n          tag_75\n          jumpi\n            /* \"#utility.yul\":2488:2567   */\n          tag_76\n          tag_26\n          jump\t// in\n        tag_76:\n            /* \"#utility.yul\":2447:2569   */\n        tag_75:\n            /* \"#utility.yul\":2598:2604   */\n          dup2\n            /* \"#utility.yul\":2592:2605   */\n          mload\n            /* \"#utility.yul\":2623:2713   */\n          tag_77\n            /* \"#utility.yul\":2709:2712   */\n          dup5\n            /* \"#utility.yul\":2701:2707   */\n          dup3\n            /* \"#utility.yul\":2694:2698   */\n          0x20\n            /* \"#utility.yul\":2686:2692   */\n          dup7\n            /* \"#utility.yul\":2682:2699   */\n          add\n            /* \"#utility.yul\":2623:2713   */\n          tag_34\n          jump\t// in\n        tag_77:\n            /* \"#utility.yul\":2614:2713   */\n          swap2\n          pop\n            /* \"#utility.yul\":2437:2719   */\n          pop\n            /* \"#utility.yul\":2364:2719   */\n          swap3\n          swap2\n          pop\n          pop\n          jump\t// out\n            /* \"#utility.yul\":2725:2802   */\n        tag_36:\n            /* \"#utility.yul\":2762:2769   */\n          0x00\n            /* \"#utility.yul\":2791:2796   */\n          dup2\n            /* \"#utility.yul\":2780:2796   */\n          swap1\n          pop\n            /* \"#utility.yul\":2725:2802   */\n          swap2\n          swap1\n          pop\n          jump\t// out\n            /* \"#utility.yul\":2808:2930   */\n        tag_37:\n            /* \"#utility.yul\":2881:2905   */\n          tag_80\n            /* \"#utility.yul\":2899:2904   */\n          dup2\n            /* \"#utility.yul\":2881:2905   */\n          tag_36\n          jump\t// in\n        tag_80:\n            /* \"#utility.yul\":2874:2879   */\n          dup2\n            /* \"#utility.yul\":2871:2906   */\n          eq\n            /* \"#utility.yul\":2861:2924   */\n          tag_81\n          jumpi\n            /* \"#utility.yul\":2920:2921   */\n          0x00\n            /* \"#utility.yul\":2917:2918   */\n          dup1\n            /* \"#utility.yul\":2910:2922   */\n          revert\n            /* \"#utility.yul\":2861:2924   */\n        tag_81:\n            /* \"#utility.yul\":2808:2930   */\n          pop\n          jump\t// out\n            /* \"#utility.yul\":2936:3079   */\n        tag_38:\n            /* \"#utility.yul\":2993:2998   */\n          0x00\n            /* \"#utility.yul\":3024:3030   */\n          dup2\n            /* \"#utility.yul\":3018:3031   */\n          mload\n            /* \"#utility.yul\":3009:3031   */\n          swap1\n          pop\n            /* \"#utility.yul\":3040:3073   */\n          tag_83\n            /* \"#utility.yul\":3067:3072   */\n          dup2\n            /* \"#utility.yul\":3040:3073   */\n          tag_37\n          jump\t// in\n        tag_83:\n            /* \"#utility.yul\":2936:3079   */\n          swap3\n          swap2\n          pop\n          pop\n          jump\t// out\n            /* \"#utility.yul\":3085:3211   */\n        tag_39:\n            /* \"#utility.yul\":3122:3129   */\n          0x00\n            /* \"#utility.yul\":3162:3204   */\n          0xffffffffffffffffffffffffffffffffffffffff\n            /* \"#utility.yul\":3155:3160   */\n          dup3\n            /* \"#utility.yul\":3151:3205   */\n          and\n            /* \"#utility.yul\":3140:3205   */\n          swap1\n          pop\n            /* \"#utility.yul\":3085:3211   */\n          swap2\n          swap1\n          pop\n          jump\t// out\n            /* \"#utility.yul\":3217:3313   */\n        tag_40:\n            /* \"#utility.yul\":3254:3261   */\n          0x00\n            /* \"#utility.yul\":3283:3307   */\n          tag_86\n            /* \"#utility.yul\":3301:3306   */\n          dup3\n            /* \"#utility.yul\":3283:3307   */\n          tag_39\n          jump\t// in\n        tag_86:\n            /* \"#utility.yul\":3272:3307   */\n          swap1\n          pop\n            /* \"#utility.yul\":3217:3313   */\n          swap2\n          swap1\n          pop\n          jump\t// out\n            /* \"#utility.yul\":3319:3441   */\n        tag_41:\n            /* \"#utility.yul\":3392:3416   */\n          tag_88\n            /* \"#utility.yul\":3410:3415   */\n          dup2\n            /* \"#utility.yul\":3392:3416   */\n          tag_40\n          jump\t// in\n        tag_88:\n            /* \"#utility.yul\":3385:3390   */\n          dup2\n            /* \"#utility.yul\":3382:3417   */\n          eq\n            /* \"#utility.yul\":3372:3435   */\n          tag_89\n          jumpi\n            /* \"#utility.yul\":3431:3432   */\n          0x00\n            /* \"#utility.yul\":3428:3429   */\n          dup1\n            /* \"#utility.yul\":3421:3433   */\n          revert\n            /* \"#utility.yul\":3372:3435   */\n        tag_89:\n            /* \"#utility.yul\":3319:3441   */\n          pop\n          jump\t// out\n            /* \"#utility.yul\":3447:3590   */\n        tag_42:\n            /* \"#utility.yul\":3504:3509   */\n          0x00\n            /* \"#utility.yul\":3535:3541   */\n          dup2\n            /* \"#utility.yul\":3529:3542   */\n          mload\n            /* \"#utility.yul\":3520:3542   */\n          swap1\n          pop\n            /* \"#utility.yul\":3551:3584   */\n          tag_91\n            /* \"#utility.yul\":3578:3583   */\n          dup2\n            /* \"#utility.yul\":3551:3584   */\n          tag_41\n          jump\t// in\n        tag_91:\n            /* \"#utility.yul\":3447:3590   */\n          swap3\n          swap2\n          pop\n          pop\n          jump\t// out\n            /* \"#utility.yul\":3596:5422   */\n        tag_3:\n            /* \"#utility.yul\":3751:3757   */\n          0x00\n            /* \"#utility.yul\":3759:3765   */\n          dup1\n            /* \"#utility.yul\":3767:3773   */\n          0x00\n            /* \"#utility.yul\":3775:3781   */\n          dup1\n            /* \"#utility.yul\":3783:3789   */\n          0x00\n            /* \"#utility.yul\":3791:3797   */\n          dup1\n            /* \"#utility.yul\":3840:3843   */\n          0xc0\n            /* \"#utility.yul\":3828:3837   */\n          dup8\n            /* \"#utility.yul\":3819:3826   */\n          dup10\n            /* \"#utility.yul\":3815:3838   */\n          sub\n            /* \"#utility.yul\":3811:3844   */\n          slt\n            /* \"#utility.yul\":3808:3928   */\n          iszero\n          tag_93\n          jumpi\n            /* \"#utility.yul\":3847:3926   */\n          tag_94\n          tag_24\n          jump\t// in\n        tag_94:\n            /* \"#utility.yul\":3808:3928   */\n        tag_93:\n            /* \"#utility.yul\":3988:3989   */\n          0x00\n            /* \"#utility.yul\":3977:3986   */\n          dup8\n            /* \"#utility.yul\":3973:3990   */\n          add\n            /* \"#utility.yul\":3967:3991   */\n          mload\n            /* \"#utility.yul\":4018:4036   */\n          0xffffffffffffffff\n            /* \"#utility.yul\":4010:4016   */\n          dup2\n            /* \"#utility.yul\":4007:4037   */\n          gt\n            /* \"#utility.yul\":4004:4121   */\n          iszero\n          tag_95\n          jumpi\n            /* \"#utility.yul\":4040:4119   */\n          tag_96\n          tag_25\n          jump\t// in\n        tag_96:\n            /* \"#utility.yul\":4004:4121   */\n        tag_95:\n            /* \"#utility.yul\":4145:4219   */\n          tag_97\n            /* \"#utility.yul\":4211:4218   */\n          dup10\n            /* \"#utility.yul\":4202:4208   */\n          dup3\n            /* \"#utility.yul\":4191:4200   */\n          dup11\n            /* \"#utility.yul\":4187:4209   */\n          add\n            /* \"#utility.yul\":4145:4219   */\n          tag_35\n          jump\t// in\n        tag_97:\n            /* \"#utility.yul\":4135:4219   */\n          swap7\n          pop\n            /* \"#utility.yul\":3938:4229   */\n          pop\n            /* \"#utility.yul\":4289:4291   */\n          0x20\n            /* \"#utility.yul\":4278:4287   */\n          dup8\n            /* \"#utility.yul\":4274:4292   */\n          add\n            /* \"#utility.yul\":4268:4293   */\n          mload\n            /* \"#utility.yul\":4320:4338   */\n          0xffffffffffffffff\n            /* \"#utility.yul\":4312:4318   */\n          dup2\n            /* \"#utility.yul\":4309:4339   */\n          gt\n            /* \"#utility.yul\":4306:4423   */\n          iszero\n          tag_98\n          jumpi\n            /* \"#utility.yul\":4342:4421   */\n          tag_99\n          tag_25\n          jump\t// in\n        tag_99:\n            /* \"#utility.yul\":4306:4423   */\n        tag_98:\n            /* \"#utility.yul\":4447:4521   */\n          tag_100\n            /* \"#utility.yul\":4513:4520   */\n          dup10\n            /* \"#utility.yul\":4504:4510   */\n          dup3\n            /* \"#utility.yul\":4493:4502   */\n          dup11\n            /* \"#utility.yul\":4489:4511   */\n          add\n            /* \"#utility.yul\":4447:4521   */\n          tag_35\n          jump\t// in\n        tag_100:\n            /* \"#utility.yul\":4437:4521   */\n          swap6\n          pop\n            /* \"#utility.yul\":4239:4531   */\n          pop\n            /* \"#utility.yul\":4570:4572   */\n          0x40\n            /* \"#utility.yul\":4596:4660   */\n          tag_101\n            /* \"#utility.yul\":4652:4659   */\n          dup10\n            /* \"#utility.yul\":4643:4649   */\n          dup3\n            /* \"#utility.yul\":4632:4641   */\n          dup11\n            /* \"#utility.yul\":4628:4650   */\n          add\n            /* \"#utility.yul\":4596:4660   */\n          tag_38\n          jump\t// in\n        tag_101:\n            /* \"#utility.yul\":4586:4660   */\n          swap5\n          pop\n            /* \"#utility.yul\":4541:4670   */\n          pop\n            /* \"#utility.yul\":4709:4711   */\n          0x60\n            /* \"#utility.yul\":4735:4799   */\n          tag_102\n            /* \"#utility.yul\":4791:4798   */\n          dup10\n            /* \"#utility.yul\":4782:4788   */\n          dup3\n            /* \"#utility.yul\":4771:4780   */\n          dup11\n            /* \"#utility.yul\":4767:4789   */\n          add\n            /* \"#utility.yul\":4735:4799   */\n          tag_42\n          jump\t// in\n        tag_102:\n            /* \"#utility.yul\":4725:4799   */\n          swap4\n          pop\n            /* \"#utility.yul\":4680:4809   */\n          pop\n            /* \"#utility.yul\":4869:4872   */\n          0x80\n            /* \"#utility.yul\":4858:4867   */\n          dup8\n            /* \"#utility.yul\":4854:4873   */\n          add\n            /* \"#utility.yul\":4848:4874   */\n          mload\n            /* \"#utility.yul\":4901:4919   */\n          0xffffffffffffffff\n            /* \"#utility.yul\":4893:4899   */\n          dup2\n            /* \"#utility.yul\":4890:4920   */\n          gt\n            /* \"#utility.yul\":4887:5004   */\n          iszero\n          tag_103\n          jumpi\n            /* \"#utility.yul\":4923:5002   */\n          tag_104\n          tag_25\n          jump\t// in\n        tag_104:\n            /* \"#utility.yul\":4887:5004   */\n        tag_103:\n            /* \"#utility.yul\":5028:5102   */\n          tag_105\n            /* \"#utility.yul\":5094:5101   */\n          dup10\n            /* \"#utility.yul\":5085:5091   */\n          dup3\n            /* \"#utility.yul\":5074:5083   */\n          dup11\n            /* \"#utility.yul\":5070:5092   */\n          add\n            /* \"#utility.yul\":5028:5102   */\n          tag_35\n          jump\t// in\n        tag_105:\n            /* \"#utility.yul\":5018:5102   */\n          swap3\n          pop\n            /* \"#utility.yul\":4819:5112   */\n          pop\n            /* \"#utility.yul\":5172:5175   */\n          0xa0\n            /* \"#utility.yul\":5161:5170   */\n          dup8\n            /* \"#utility.yul\":5157:5176   */\n          add\n            /* \"#utility.yul\":5151:5177   */\n          mload\n            /* \"#utility.yul\":5204:5222   */\n          0xffffffffffffffff\n            /* \"#utility.yul\":5196:5202   */\n          dup2\n            /* \"#utility.yul\":5193:5223   */\n          gt\n            /* \"#utility.yul\":5190:5307   */\n          iszero\n          tag_106\n          jumpi\n            /* \"#utility.yul\":5226:5305   */\n          tag_107\n          tag_25\n          jump\t// in\n        tag_107:\n            /* \"#utility.yul\":5190:5307   */\n        tag_106:\n            /* \"#utility.yul\":5331:5405   */\n          tag_108\n            /* \"#utility.yul\":5397:5404   */\n          dup10\n            /* \"#utility.yul\":5388:5394   */\n          dup3\n            /* \"#utility.yul\":5377:5386   */\n          dup11\n            /* \"#utility.yul\":5373:5395   */\n          add\n            /* \"#utility.yul\":5331:5405   */\n          tag_35\n          jump\t// in\n        tag_108:\n            /* \"#utility.yul\":5321:5405   */\n          swap2\n          pop\n            /* \"#utility.yul\":5122:5415   */\n          pop\n            /* \"#utility.yul\":3596:5422   */\n          swap3\n          swap6\n          pop\n          swap3\n          swap6\n          pop\n          swap3\n          swap6\n          jump\t// out\n            /* \"#utility.yul\":5428:5608   */\n        tag_43:\n            /* \"#utility.yul\":5476:5553   */\n          0x4e487b7100000000000000000000000000000000000000000000000000000000\n            /* \"#utility.yul\":5473:5474   */\n          0x00\n            /* \"#utility.yul\":5466:5554   */\n          mstore\n            /* \"#utility.yul\":5573:5577   */\n          0x22\n            /* \"#utility.yul\":5570:5571   */\n          0x04\n            /* \"#utility.yul\":5563:5578   */\n          mstore\n            /* \"#utility.yul\":5597:5601   */\n          0x24\n            /* \"#utility.yul\":5594:5595   */\n          0x00\n            /* \"#utility.yul\":5587:5602   */\n          revert\n            /* \"#utility.yul\":5614:5934   */\n        tag_13:\n            /* \"#utility.yul\":5658:5664   */\n          0x00\n            /* \"#utility.yul\":5695:5696   */\n          0x02\n            /* \"#utility.yul\":5689:5693   */\n          dup3\n            /* \"#utility.yul\":5685:5697   */\n          div\n            /* \"#utility.yul\":5675:5697   */\n          swap1\n          pop\n            /* \"#utility.yul\":5742:5743   */\n          0x01\n            /* \"#utility.yul\":5736:5740   */\n          dup3\n            /* \"#utility.yul\":5732:5744   */\n          and\n            /* \"#utility.yul\":5763:5781   */\n          dup1\n            /* \"#utility.yul\":5753:5834   */\n          tag_111\n          jumpi\n            /* \"#utility.yul\":5819:5823   */\n          0x7f\n            /* \"#utility.yul\":5811:5817   */\n          dup3\n            /* \"#utility.yul\":5807:5824   */\n          and\n            /* \"#utility.yul\":5797:5824   */\n          swap2\n          pop\n            /* \"#utility.yul\":5753:5834   */\n        tag_111:\n            /* \"#utility.yul\":5881:5883   */\n          0x20\n            /* \"#utility.yul\":5873:5879   */\n          dup3\n            /* \"#utility.yul\":5870:5884   */\n          lt\n            /* \"#utility.yul\":5850:5868   */\n          dup2\n            /* \"#utility.yul\":5847:5885   */\n          eq\n            /* \"#utility.yul\":5844:5928   */\n          iszero\n          tag_112\n          jumpi\n            /* \"#utility.yul\":5900:5918   */\n          tag_113\n          tag_43\n          jump\t// in\n        tag_113:\n            /* \"#utility.yul\":5844:5928   */\n        tag_112:\n            /* \"#utility.yul\":5665:5934   */\n          pop\n            /* \"#utility.yul\":5614:5934   */\n          swap2\n          swap1\n          pop\n          jump\t// out\n            /* \"Auctioninfo.sol\":790:1593  contract FundRaiser {... */\n        tag_11:\n          dataSize(sub_0)\n          dup1\n          dataOffset(sub_0)\n          0x00\n          codecopy\n          0x00\n          return\n        stop\n\n        sub_0: assembly {\n                /* \"Auctioninfo.sol\":790:1593  contract FundRaiser {... */\n              mstore(0x40, 0x80)\n              callvalue\n              dup1\n              iszero\n              tag_1\n              jumpi\n              0x00\n              dup1\n              revert\n            tag_1:\n              pop\n              jumpi(tag_2, lt(calldatasize, 0x04))\n              shr(0xe0, calldataload(0x00))\n              dup1\n              0x4051ddac\n              gt\n              tag_10\n              jumpi\n              dup1\n              0x4051ddac\n              eq\n              tag_6\n              jumpi\n              dup1\n              0x5dab2420\n              eq\n              tag_7\n              jumpi\n              dup1\n              0x7150d8ae\n              eq\n              tag_8\n              jumpi\n              dup1\n              0xf3ccaac0\n              eq\n              tag_9\n              jumpi\n              jump(tag_2)\n            tag_10:\n              dup1\n              0x06fdde03\n              eq\n              tag_3\n              jumpi\n              dup1\n              0x08551a53\n              eq\n              tag_4\n              jumpi\n              dup1\n              0x3fa4f245\n              eq\n              tag_5\n              jumpi\n            tag_2:\n              0x00\n              dup1\n              revert\n                /* \"Auctioninfo.sol\":817:835  string public name */\n            tag_3:\n              tag_11\n              tag_12\n              jump\t// in\n            tag_11:\n              mload(0x40)\n              tag_13\n              swap2\n              swap1\n              tag_14\n              jump\t// in\n            tag_13:\n              mload(0x40)\n              dup1\n              swap2\n              sub\n              swap1\n              return\n                /* \"Auctioninfo.sol\":894:914  string public seller */\n            tag_4:\n              tag_15\n              tag_16\n              jump\t// in\n            tag_15:\n              mload(0x40)\n              tag_17\n              swap2\n              swap1\n              tag_14\n              jump\t// in\n            tag_17:\n              mload(0x40)\n              dup1\n              swap2\n              sub\n              swap1\n              return\n                /* \"Auctioninfo.sol\":921:941  uint256 public value */\n            tag_5:\n              tag_18\n              tag_19\n              jump\t// in\n            tag_18:\n              mload(0x40)\n              tag_20\n              swap2\n              swap1\n              tag_21\n              jump\t// in\n            tag_20:\n              mload(0x40)\n              dup1\n              swap2\n              sub\n              swap1\n              return\n                /* \"Auctioninfo.sol\":1279:1590  function getSummary()... */\n            tag_6:\n              tag_22\n              tag_23\n              jump\t// in\n            tag_22:\n              mload(0x40)\n              tag_24\n              swap7\n              swap6\n              swap5\n              swap4\n              swap3\n              swap2\n              swap1\n              tag_25\n              jump\t// in\n            tag_24:\n              mload(0x40)\n              dup1\n              swap2\n              sub\n              swap1\n              return\n                /* \"Auctioninfo.sol\":948:970  address public account */\n            tag_7:\n              tag_26\n              tag_27\n              jump\t// in\n            tag_26:\n              mload(0x40)\n              tag_28\n              swap2\n              swap1\n              tag_29\n              jump\t// in\n            tag_28:\n              mload(0x40)\n              dup1\n              swap2\n              sub\n              swap1\n              return\n                /* \"Auctioninfo.sol\":868:887  string public buyer */\n            tag_8:\n              tag_30\n              tag_31\n              jump\t// in\n            tag_30:\n              mload(0x40)\n              tag_32\n              swap2\n              swap1\n              tag_14\n              jump\t// in\n            tag_32:\n              mload(0x40)\n              dup1\n              swap2\n              sub\n              swap1\n              return\n                /* \"Auctioninfo.sol\":842:861  string public image */\n            tag_9:\n              tag_33\n              tag_34\n              jump\t// in\n            tag_33:\n              mload(0x40)\n              tag_35\n              swap2\n              swap1\n              tag_14\n              jump\t// in\n            tag_35:\n              mload(0x40)\n              dup1\n              swap2\n              sub\n              swap1\n              return\n                /* \"Auctioninfo.sol\":817:835  string public name */\n            tag_12:\n              0x00\n              dup1\n              sload\n              tag_36\n              swap1\n              tag_37\n              jump\t// in\n            tag_36:\n              dup1\n              0x1f\n              add\n              0x20\n              dup1\n              swap2\n              div\n              mul\n              0x20\n              add\n              mload(0x40)\n              swap1\n              dup2\n              add\n              0x40\n              mstore\n              dup1\n              swap3\n              swap2\n              swap1\n              dup2\n              dup2\n              mstore\n              0x20\n              add\n              dup3\n              dup1\n              sload\n              tag_38\n              swap1\n              tag_37\n              jump\t// in\n            tag_38:\n              dup1\n              iszero\n              tag_39\n              jumpi\n              dup1\n              0x1f\n              lt\n              tag_40\n              jumpi\n              0x0100\n              dup1\n              dup4\n              sload\n              div\n              mul\n              dup4\n              mstore\n              swap2\n              0x20\n              add\n              swap2\n              jump(tag_39)\n            tag_40:\n              dup3\n              add\n              swap2\n              swap1\n              0x00\n              mstore\n              keccak256(0x00, 0x20)\n              swap1\n            tag_41:\n              dup2\n              sload\n              dup2\n              mstore\n              swap1\n              0x01\n              add\n              swap1\n              0x20\n              add\n              dup1\n              dup4\n              gt\n              tag_41\n              jumpi\n              dup3\n              swap1\n              sub\n              0x1f\n              and\n              dup3\n              add\n              swap2\n            tag_39:\n              pop\n              pop\n              pop\n              pop\n              pop\n              dup2\n              jump\t// out\n                /* \"Auctioninfo.sol\":894:914  string public seller */\n            tag_16:\n              0x03\n              dup1\n              sload\n              tag_42\n              swap1\n              tag_37\n              jump\t// in\n            tag_42:\n              dup1\n              0x1f\n              add\n              0x20\n              dup1\n              swap2\n              div\n              mul\n              0x20\n              add\n              mload(0x40)\n              swap1\n              dup2\n              add\n              0x40\n              mstore\n              dup1\n              swap3\n              swap2\n              swap1\n              dup2\n              dup2\n              mstore\n              0x20\n              add\n              dup3\n              dup1\n              sload\n              tag_43\n              swap1\n              tag_37\n              jump\t// in\n            tag_43:\n              dup1\n              iszero\n              tag_44\n              jumpi\n              dup1\n              0x1f\n              lt\n              tag_45\n              jumpi\n              0x0100\n              dup1\n              dup4\n              sload\n              div\n              mul\n              dup4\n              mstore\n              swap2\n              0x20\n              add\n              swap2\n              jump(tag_44)\n            tag_45:\n              dup3\n              add\n              swap2\n              swap1\n              0x00\n              mstore\n              keccak256(0x00, 0x20)\n              swap1\n            tag_46:\n              dup2\n              sload\n              dup2\n              mstore\n              swap1\n              0x01\n              add\n              swap1\n              0x20\n              add\n              dup1\n              dup4\n              gt\n              tag_46\n              jumpi\n              dup3\n              swap1\n              sub\n              0x1f\n              and\n              dup3\n              add\n              swap2\n            tag_44:\n              pop\n              pop\n              pop\n              pop\n              pop\n              dup2\n              jump\t// out\n                /* \"Auctioninfo.sol\":921:941  uint256 public value */\n            tag_19:\n              sload(0x04)\n              dup2\n              jump\t// out\n                /* \"Auctioninfo.sol\":1279:1590  function getSummary()... */\n            tag_23:\n                /* \"Auctioninfo.sol\":1363:1376  string memory */\n              0x60\n                /* \"Auctioninfo.sol\":1391:1404  string memory */\n              dup1\n                /* \"Auctioninfo.sol\":1419:1432  string memory */\n              0x60\n                /* \"Auctioninfo.sol\":1447:1460  string memory */\n              dup1\n                /* \"Auctioninfo.sol\":1475:1482  uint256 */\n              0x00\n                /* \"Auctioninfo.sol\":1497:1504  address */\n              dup1\n                /* \"Auctioninfo.sol\":1540:1544  name */\n              0x00\n                /* \"Auctioninfo.sol\":1546:1551  image */\n              0x01\n                /* \"Auctioninfo.sol\":1553:1558  buyer */\n              0x02\n                /* \"Auctioninfo.sol\":1560:1566  seller */\n              0x03\n                /* \"Auctioninfo.sol\":1568:1573  value */\n              sload(0x04)\n                /* \"Auctioninfo.sol\":1574:1581  account */\n              0x05\n              0x00\n              swap1\n              sload\n              swap1\n              0x0100\n              exp\n              swap1\n              div\n              0xffffffffffffffffffffffffffffffffffffffff\n              and\n                /* \"Auctioninfo.sol\":1532:1582  return (name, image, buyer, seller, value,account) */\n              dup6\n              dup1\n              sload\n              tag_48\n              swap1\n              tag_37\n              jump\t// in\n            tag_48:\n              dup1\n              0x1f\n              add\n              0x20\n              dup1\n              swap2\n              div\n              mul\n              0x20\n              add\n              mload(0x40)\n              swap1\n              dup2\n              add\n              0x40\n              mstore\n              dup1\n              swap3\n              swap2\n              swap1\n              dup2\n              dup2\n              mstore\n              0x20\n              add\n              dup3\n              dup1\n              sload\n              tag_49\n              swap1\n              tag_37\n              jump\t// in\n            tag_49:\n              dup1\n              iszero\n              tag_50\n              jumpi\n              dup1\n              0x1f\n              lt\n              tag_51\n              jumpi\n              0x0100\n              dup1\n              dup4\n              sload\n              div\n              mul\n              dup4\n              mstore\n              swap2\n              0x20\n              add\n              swap2\n              jump(tag_50)\n            tag_51:\n              dup3\n              add\n              swap2\n              swap1\n              0x00\n              mstore\n              keccak256(0x00, 0x20)\n              swap1\n            tag_52:\n              dup2\n              sload\n              dup2\n              mstore\n              swap1\n              0x01\n              add\n              swap1\n              0x20\n              add\n              dup1\n              dup4\n              gt\n              tag_52\n              jumpi\n              dup3\n              swap1\n              sub\n              0x1f\n              and\n              dup3\n              add\n              swap2\n            tag_50:\n              pop\n              pop\n              pop\n              pop\n              pop\n              swap6\n              pop\n              dup5\n              dup1\n              sload\n              tag_53\n              swap1\n              tag_37\n              jump\t// in\n            tag_53:\n              dup1\n              0x1f\n              add\n              0x20\n              dup1\n              swap2\n              div\n              mul\n              0x20\n              add\n              mload(0x40)\n              swap1\n              dup2\n              add\n              0x40\n              mstore\n              dup1\n              swap3\n              swap2\n              swap1\n              dup2\n              dup2\n              mstore\n              0x20\n              add\n              dup3\n              dup1\n              sload\n              tag_54\n              swap1\n              tag_37\n              jump\t// in\n            tag_54:\n              dup1\n              iszero\n              tag_55\n              jumpi\n              dup1\n              0x1f\n              lt\n              tag_56\n              jumpi\n              0x0100\n              dup1\n              dup4\n              sload\n              div\n              mul\n              dup4\n              mstore\n              swap2\n              0x20\n              add\n              swap2\n              jump(tag_55)\n            tag_56:\n              dup3\n              add\n              swap2\n              swap1\n              0x00\n              mstore\n              keccak256(0x00, 0x20)\n              swap1\n            tag_57:\n              dup2\n              sload\n              dup2\n              mstore\n              swap1\n              0x01\n              add\n              swap1\n              0x20\n              add\n              dup1\n              dup4\n              gt\n              tag_57\n              jumpi\n              dup3\n              swap1\n              sub\n              0x1f\n              and\n              dup3\n              add\n              swap2\n            tag_55:\n              pop\n              pop\n              pop\n              pop\n              pop\n              swap5\n              pop\n              dup4\n              dup1\n              sload\n              tag_58\n              swap1\n              tag_37\n              jump\t// in\n            tag_58:\n              dup1\n              0x1f\n              add\n              0x20\n              dup1\n              swap2\n              div\n              mul\n              0x20\n              add\n              mload(0x40)\n              swap1\n              dup2\n              add\n              0x40\n              mstore\n              dup1\n              swap3\n              swap2\n              swap1\n              dup2\n              dup2\n              mstore\n              0x20\n              add\n              dup3\n              dup1\n              sload\n              tag_59\n              swap1\n              tag_37\n              jump\t// in\n            tag_59:\n              dup1\n              iszero\n              tag_60\n              jumpi\n              dup1\n              0x1f\n              lt\n              tag_61\n              jumpi\n              0x0100\n              dup1\n              dup4\n              sload\n              div\n              mul\n              dup4\n              mstore\n              swap2\n              0x20\n              add\n              swap2\n              jump(tag_60)\n            tag_61:\n              dup3\n              add\n              swap2\n              swap1\n              0x00\n              mstore\n              keccak256(0x00, 0x20)\n              swap1\n            tag_62:\n              dup2\n              sload\n              dup2\n              mstore\n              swap1\n              0x01\n              add\n              swap1\n              0x20\n              add\n              dup1\n              dup4\n              gt\n              tag_62\n              jumpi\n              dup3\n              swap1\n              sub\n              0x1f\n              and\n              dup3\n              add\n              swap2\n            tag_60:\n              pop\n              pop\n              pop\n              pop\n              pop\n              swap4\n              pop\n              dup3\n              dup1\n              sload\n              tag_63\n              swap1\n              tag_37\n              jump\t// in\n            tag_63:\n              dup1\n              0x1f\n              add\n              0x20\n              dup1\n              swap2\n              div\n              mul\n              0x20\n              add\n              mload(0x40)\n              swap1\n              dup2\n              add\n              0x40\n              mstore\n              dup1\n              swap3\n              swap2\n              swap1\n              dup2\n              dup2\n              mstore\n              0x20\n              add\n              dup3\n              dup1\n              sload\n              tag_64\n              swap1\n              tag_37\n              jump\t// in\n            tag_64:\n              dup1\n              iszero\n              tag_65\n              jumpi\n              dup1\n              0x1f\n              lt\n              tag_66\n              jumpi\n              0x0100\n              dup1\n              dup4\n              sload\n              div\n              mul\n              dup4\n              mstore\n              swap2\n              0x20\n              add\n              swap2\n              jump(tag_65)\n            tag_66:\n              dup3\n              add\n              swap2\n              swap1\n              0x00\n              mstore\n              keccak256(0x00, 0x20)\n              swap1\n            tag_67:\n              dup2\n              sload\n              dup2\n              mstore\n              swap1\n              0x01\n              add\n              swap1\n              0x20\n              add\n              dup1\n              dup4\n              gt\n              tag_67\n              jumpi\n              dup3\n              swap1\n              sub\n              0x1f\n              and\n              dup3\n              add\n              swap2\n            tag_65:\n              pop\n              pop\n              pop\n              pop\n              pop\n              swap3\n              pop\n              swap6\n              pop\n              swap6\n              pop\n              swap6\n              pop\n              swap6\n              pop\n              swap6\n              pop\n              swap6\n              pop\n                /* \"Auctioninfo.sol\":1279:1590  function getSummary()... */\n              swap1\n              swap2\n              swap3\n              swap4\n              swap5\n              swap6\n              jump\t// out\n                /* \"Auctioninfo.sol\":948:970  address public account */\n            tag_27:\n              0x05\n              0x00\n              swap1\n              sload\n              swap1\n              0x0100\n              exp\n              swap1\n              div\n              0xffffffffffffffffffffffffffffffffffffffff\n              and\n              dup2\n              jump\t// out\n                /* \"Auctioninfo.sol\":868:887  string public buyer */\n            tag_31:\n              0x02\n              dup1\n              sload\n              tag_68\n              swap1\n              tag_37\n              jump\t// in\n            tag_68:\n              dup1\n              0x1f\n              add\n              0x20\n              dup1\n              swap2\n              div\n              mul\n              0x20\n              add\n              mload(0x40)\n              swap1\n              dup2\n              add\n              0x40\n              mstore\n              dup1\n              swap3\n              swap2\n              swap1\n              dup2\n              dup2\n              mstore\n              0x20\n              add\n              dup3\n              dup1\n              sload\n              tag_69\n              swap1\n              tag_37\n              jump\t// in\n            tag_69:\n              dup1\n              iszero\n              tag_70\n              jumpi\n              dup1\n              0x1f\n              lt\n              tag_71\n              jumpi\n              0x0100\n              dup1\n              dup4\n              sload\n              div\n              mul\n              dup4\n              mstore\n              swap2\n              0x20\n              add\n              swap2\n              jump(tag_70)\n            tag_71:\n              dup3\n              add\n              swap2\n              swap1\n              0x00\n              mstore\n              keccak256(0x00, 0x20)\n              swap1\n            tag_72:\n              dup2\n              sload\n              dup2\n              mstore\n              swap1\n              0x01\n              add\n              swap1\n              0x20\n              add\n              dup1\n              dup4\n              gt\n              tag_72\n              jumpi\n              dup3\n              swap1\n              sub\n              0x1f\n              and\n              dup3\n              add\n              swap2\n            tag_70:\n              pop\n              pop\n              pop\n              pop\n              pop\n              dup2\n              jump\t// out\n                /* \"Auctioninfo.sol\":842:861  string public image */\n            tag_34:\n              0x01\n              dup1\n              sload\n              tag_73\n              swap1\n              tag_37\n              jump\t// in\n            tag_73:\n              dup1\n              0x1f\n              add\n              0x20\n              dup1\n              swap2\n              div\n              mul\n              0x20\n              add\n              mload(0x40)\n              swap1\n              dup2\n              add\n              0x40\n              mstore\n              dup1\n              swap3\n              swap2\n              swap1\n              dup2\n              dup2\n              mstore\n              0x20\n              add\n              dup3\n              dup1\n              sload\n              tag_74\n              swap1\n              tag_37\n              jump\t// in\n            tag_74:\n              dup1\n              iszero\n              tag_75\n              jumpi\n              dup1\n              0x1f\n              lt\n              tag_76\n              jumpi\n              0x0100\n              dup1\n              dup4\n              sload\n              div\n              mul\n              dup4\n              mstore\n              swap2\n              0x20\n              add\n              swap2\n              jump(tag_75)\n            tag_76:\n              dup3\n              add\n              swap2\n              swap1\n              0x00\n              mstore\n              keccak256(0x00, 0x20)\n              swap1\n            tag_77:\n              dup2\n              sload\n              dup2\n              mstore\n              swap1\n              0x01\n              add\n              swap1\n              0x20\n              add\n              dup1\n              dup4\n              gt\n              tag_77\n              jumpi\n              dup3\n              swap1\n              sub\n              0x1f\n              and\n              dup3\n              add\n              swap2\n            tag_75:\n              pop\n              pop\n              pop\n              pop\n              pop\n              dup2\n              jump\t// out\n                /* \"#utility.yul\":7:106   */\n            tag_78:\n                /* \"#utility.yul\":59:65   */\n              0x00\n                /* \"#utility.yul\":93:98   */\n              dup2\n                /* \"#utility.yul\":87:99   */\n              mload\n                /* \"#utility.yul\":77:99   */\n              swap1\n              pop\n                /* \"#utility.yul\":7:106   */\n              swap2\n              swap1\n              pop\n              jump\t// out\n                /* \"#utility.yul\":112:281   */\n            tag_79:\n                /* \"#utility.yul\":196:207   */\n              0x00\n                /* \"#utility.yul\":230:236   */\n              dup3\n                /* \"#utility.yul\":225:228   */\n              dup3\n                /* \"#utility.yul\":218:237   */\n              mstore\n                /* \"#utility.yul\":270:274   */\n              0x20\n                /* \"#utility.yul\":265:268   */\n              dup3\n                /* \"#utility.yul\":261:275   */\n              add\n                /* \"#utility.yul\":246:275   */\n              swap1\n              pop\n                /* \"#utility.yul\":112:281   */\n              swap3\n              swap2\n              pop\n              pop\n              jump\t// out\n                /* \"#utility.yul\":287:594   */\n            tag_80:\n                /* \"#utility.yul\":355:356   */\n              0x00\n                /* \"#utility.yul\":365:478   */\n            tag_93:\n                /* \"#utility.yul\":379:385   */\n              dup4\n                /* \"#utility.yul\":376:377   */\n              dup2\n                /* \"#utility.yul\":373:386   */\n              lt\n                /* \"#utility.yul\":365:478   */\n              iszero\n              tag_95\n              jumpi\n                /* \"#utility.yul\":464:465   */\n              dup1\n                /* \"#utility.yul\":459:462   */\n              dup3\n                /* \"#utility.yul\":455:466   */\n              add\n                /* \"#utility.yul\":449:467   */\n              mload\n                /* \"#utility.yul\":445:446   */\n              dup2\n                /* \"#utility.yul\":440:443   */\n              dup5\n                /* \"#utility.yul\":436:447   */\n              add\n                /* \"#utility.yul\":429:468   */\n              mstore\n                /* \"#utility.yul\":401:403   */\n              0x20\n                /* \"#utility.yul\":398:399   */\n              dup2\n                /* \"#utility.yul\":394:404   */\n              add\n                /* \"#utility.yul\":389:404   */\n              swap1\n              pop\n                /* \"#utility.yul\":365:478   */\n              jump(tag_93)\n            tag_95:\n                /* \"#utility.yul\":496:502   */\n              dup4\n                /* \"#utility.yul\":493:494   */\n              dup2\n                /* \"#utility.yul\":490:503   */\n              gt\n                /* \"#utility.yul\":487:588   */\n              iszero\n              tag_96\n              jumpi\n                /* \"#utility.yul\":576:577   */\n              0x00\n                /* \"#utility.yul\":567:573   */\n              dup5\n                /* \"#utility.yul\":562:565   */\n              dup5\n                /* \"#utility.yul\":558:574   */\n              add\n                /* \"#utility.yul\":551:578   */\n              mstore\n                /* \"#utility.yul\":487:588   */\n            tag_96:\n                /* \"#utility.yul\":336:594   */\n              pop\n                /* \"#utility.yul\":287:594   */\n              pop\n              pop\n              pop\n              jump\t// out\n                /* \"#utility.yul\":600:702   */\n            tag_81:\n                /* \"#utility.yul\":641:647   */\n              0x00\n                /* \"#utility.yul\":692:694   */\n              0x1f\n                /* \"#utility.yul\":688:695   */\n              not\n                /* \"#utility.yul\":683:685   */\n              0x1f\n                /* \"#utility.yul\":676:681   */\n              dup4\n                /* \"#utility.yul\":672:686   */\n              add\n                /* \"#utility.yul\":668:696   */\n              and\n                /* \"#utility.yul\":658:696   */\n              swap1\n              pop\n                /* \"#utility.yul\":600:702   */\n              swap2\n              swap1\n              pop\n              jump\t// out\n                /* \"#utility.yul\":708:1072   */\n            tag_82:\n                /* \"#utility.yul\":796:799   */\n              0x00\n                /* \"#utility.yul\":824:863   */\n              tag_99\n                /* \"#utility.yul\":857:862   */\n              dup3\n                /* \"#utility.yul\":824:863   */\n              tag_78\n              jump\t// in\n            tag_99:\n                /* \"#utility.yul\":879:950   */\n              tag_100\n                /* \"#utility.yul\":943:949   */\n              dup2\n                /* \"#utility.yul\":938:941   */\n              dup6\n                /* \"#utility.yul\":879:950   */\n              tag_79\n              jump\t// in\n            tag_100:\n                /* \"#utility.yul\":872:950   */\n              swap4\n              pop\n                /* \"#utility.yul\":959:1011   */\n              tag_101\n                /* \"#utility.yul\":1004:1010   */\n              dup2\n                /* \"#utility.yul\":999:1002   */\n              dup6\n                /* \"#utility.yul\":992:996   */\n              0x20\n                /* \"#utility.yul\":985:990   */\n              dup7\n                /* \"#utility.yul\":981:997   */\n              add\n                /* \"#utility.yul\":959:1011   */\n              tag_80\n              jump\t// in\n            tag_101:\n                /* \"#utility.yul\":1036:1065   */\n              tag_102\n                /* \"#utility.yul\":1058:1064   */\n              dup2\n                /* \"#utility.yul\":1036:1065   */\n              tag_81\n              jump\t// in\n            tag_102:\n                /* \"#utility.yul\":1031:1034   */\n              dup5\n                /* \"#utility.yul\":1027:1066   */\n              add\n                /* \"#utility.yul\":1020:1066   */\n              swap2\n              pop\n                /* \"#utility.yul\":800:1072   */\n              pop\n                /* \"#utility.yul\":708:1072   */\n              swap3\n              swap2\n              pop\n              pop\n              jump\t// out\n                /* \"#utility.yul\":1078:1391   */\n            tag_14:\n                /* \"#utility.yul\":1191:1195   */\n              0x00\n                /* \"#utility.yul\":1229:1231   */\n              0x20\n                /* \"#utility.yul\":1218:1227   */\n              dup3\n                /* \"#utility.yul\":1214:1232   */\n              add\n                /* \"#utility.yul\":1206:1232   */\n              swap1\n              pop\n                /* \"#utility.yul\":1278:1287   */\n              dup2\n                /* \"#utility.yul\":1272:1276   */\n              dup2\n                /* \"#utility.yul\":1268:1288   */\n              sub\n                /* \"#utility.yul\":1264:1265   */\n              0x00\n                /* \"#utility.yul\":1253:1262   */\n              dup4\n                /* \"#utility.yul\":1249:1266   */\n              add\n                /* \"#utility.yul\":1242:1289   */\n              mstore\n                /* \"#utility.yul\":1306:1384   */\n              tag_104\n                /* \"#utility.yul\":1379:1383   */\n              dup2\n                /* \"#utility.yul\":1370:1376   */\n              dup5\n                /* \"#utility.yul\":1306:1384   */\n              tag_82\n              jump\t// in\n            tag_104:\n                /* \"#utility.yul\":1298:1384   */\n              swap1\n              pop\n                /* \"#utility.yul\":1078:1391   */\n              swap3\n              swap2\n              pop\n              pop\n              jump\t// out\n                /* \"#utility.yul\":1397:1474   */\n            tag_83:\n                /* \"#utility.yul\":1434:1441   */\n              0x00\n                /* \"#utility.yul\":1463:1468   */\n              dup2\n                /* \"#utility.yul\":1452:1468   */\n              swap1\n              pop\n                /* \"#utility.yul\":1397:1474   */\n              swap2\n              swap1\n              pop\n              jump\t// out\n                /* \"#utility.yul\":1480:1598   */\n            tag_84:\n                /* \"#utility.yul\":1567:1591   */\n              tag_107\n                /* \"#utility.yul\":1585:1590   */\n              dup2\n                /* \"#utility.yul\":1567:1591   */\n              tag_83\n              jump\t// in\n            tag_107:\n                /* \"#utility.yul\":1562:1565   */\n              dup3\n                /* \"#utility.yul\":1555:1592   */\n              mstore\n                /* \"#utility.yul\":1480:1598   */\n              pop\n              pop\n              jump\t// out\n                /* \"#utility.yul\":1604:1826   */\n            tag_21:\n                /* \"#utility.yul\":1697:1701   */\n              0x00\n                /* \"#utility.yul\":1735:1737   */\n              0x20\n                /* \"#utility.yul\":1724:1733   */\n              dup3\n                /* \"#utility.yul\":1720:1738   */\n              add\n                /* \"#utility.yul\":1712:1738   */\n              swap1\n              pop\n                /* \"#utility.yul\":1748:1819   */\n              tag_109\n                /* \"#utility.yul\":1816:1817   */\n              0x00\n                /* \"#utility.yul\":1805:1814   */\n              dup4\n                /* \"#utility.yul\":1801:1818   */\n              add\n                /* \"#utility.yul\":1792:1798   */\n              dup5\n                /* \"#utility.yul\":1748:1819   */\n              tag_84\n              jump\t// in\n            tag_109:\n                /* \"#utility.yul\":1604:1826   */\n              swap3\n              swap2\n              pop\n              pop\n              jump\t// out\n                /* \"#utility.yul\":1832:1958   */\n            tag_85:\n                /* \"#utility.yul\":1869:1876   */\n              0x00\n                /* \"#utility.yul\":1909:1951   */\n              0xffffffffffffffffffffffffffffffffffffffff\n                /* \"#utility.yul\":1902:1907   */\n              dup3\n                /* \"#utility.yul\":1898:1952   */\n              and\n                /* \"#utility.yul\":1887:1952   */\n              swap1\n              pop\n                /* \"#utility.yul\":1832:1958   */\n              swap2\n              swap1\n              pop\n              jump\t// out\n                /* \"#utility.yul\":1964:2060   */\n            tag_86:\n                /* \"#utility.yul\":2001:2008   */\n              0x00\n                /* \"#utility.yul\":2030:2054   */\n              tag_112\n                /* \"#utility.yul\":2048:2053   */\n              dup3\n                /* \"#utility.yul\":2030:2054   */\n              tag_85\n              jump\t// in\n            tag_112:\n                /* \"#utility.yul\":2019:2054   */\n              swap1\n              pop\n                /* \"#utility.yul\":1964:2060   */\n              swap2\n              swap1\n              pop\n              jump\t// out\n                /* \"#utility.yul\":2066:2184   */\n            tag_87:\n                /* \"#utility.yul\":2153:2177   */\n              tag_114\n                /* \"#utility.yul\":2171:2176   */\n              dup2\n                /* \"#utility.yul\":2153:2177   */\n              tag_86\n              jump\t// in\n            tag_114:\n                /* \"#utility.yul\":2148:2151   */\n              dup3\n                /* \"#utility.yul\":2141:2178   */\n              mstore\n                /* \"#utility.yul\":2066:2184   */\n              pop\n              pop\n              jump\t// out\n                /* \"#utility.yul\":2190:3329   */\n            tag_25:\n                /* \"#utility.yul\":2503:2507   */\n              0x00\n                /* \"#utility.yul\":2541:2544   */\n              0xc0\n                /* \"#utility.yul\":2530:2539   */\n              dup3\n                /* \"#utility.yul\":2526:2545   */\n              add\n                /* \"#utility.yul\":2518:2545   */\n              swap1\n              pop\n                /* \"#utility.yul\":2591:2600   */\n              dup2\n                /* \"#utility.yul\":2585:2589   */\n              dup2\n                /* \"#utility.yul\":2581:2601   */\n              sub\n                /* \"#utility.yul\":2577:2578   */\n              0x00\n                /* \"#utility.yul\":2566:2575   */\n              dup4\n                /* \"#utility.yul\":2562:2579   */\n              add\n                /* \"#utility.yul\":2555:2602   */\n              mstore\n                /* \"#utility.yul\":2619:2697   */\n              tag_116\n                /* \"#utility.yul\":2692:2696   */\n              dup2\n                /* \"#utility.yul\":2683:2689   */\n              dup10\n                /* \"#utility.yul\":2619:2697   */\n              tag_82\n              jump\t// in\n            tag_116:\n                /* \"#utility.yul\":2611:2697   */\n              swap1\n              pop\n                /* \"#utility.yul\":2744:2753   */\n              dup2\n                /* \"#utility.yul\":2738:2742   */\n              dup2\n                /* \"#utility.yul\":2734:2754   */\n              sub\n                /* \"#utility.yul\":2729:2731   */\n              0x20\n                /* \"#utility.yul\":2718:2727   */\n              dup4\n                /* \"#utility.yul\":2714:2732   */\n              add\n                /* \"#utility.yul\":2707:2755   */\n              mstore\n                /* \"#utility.yul\":2772:2850   */\n              tag_117\n                /* \"#utility.yul\":2845:2849   */\n              dup2\n                /* \"#utility.yul\":2836:2842   */\n              dup9\n                /* \"#utility.yul\":2772:2850   */\n              tag_82\n              jump\t// in\n            tag_117:\n                /* \"#utility.yul\":2764:2850   */\n              swap1\n              pop\n                /* \"#utility.yul\":2897:2906   */\n              dup2\n                /* \"#utility.yul\":2891:2895   */\n              dup2\n                /* \"#utility.yul\":2887:2907   */\n              sub\n                /* \"#utility.yul\":2882:2884   */\n              0x40\n                /* \"#utility.yul\":2871:2880   */\n              dup4\n                /* \"#utility.yul\":2867:2885   */\n              add\n                /* \"#utility.yul\":2860:2908   */\n              mstore\n                /* \"#utility.yul\":2925:3003   */\n              tag_118\n                /* \"#utility.yul\":2998:3002   */\n              dup2\n                /* \"#utility.yul\":2989:2995   */\n              dup8\n                /* \"#utility.yul\":2925:3003   */\n              tag_82\n              jump\t// in\n            tag_118:\n                /* \"#utility.yul\":2917:3003   */\n              swap1\n              pop\n                /* \"#utility.yul\":3050:3059   */\n              dup2\n                /* \"#utility.yul\":3044:3048   */\n              dup2\n                /* \"#utility.yul\":3040:3060   */\n              sub\n                /* \"#utility.yul\":3035:3037   */\n              0x60\n                /* \"#utility.yul\":3024:3033   */\n              dup4\n                /* \"#utility.yul\":3020:3038   */\n              add\n                /* \"#utility.yul\":3013:3061   */\n              mstore\n                /* \"#utility.yul\":3078:3156   */\n              tag_119\n                /* \"#utility.yul\":3151:3155   */\n              dup2\n                /* \"#utility.yul\":3142:3148   */\n              dup7\n                /* \"#utility.yul\":3078:3156   */\n              tag_82\n              jump\t// in\n            tag_119:\n                /* \"#utility.yul\":3070:3156   */\n              swap1\n              pop\n                /* \"#utility.yul\":3166:3239   */\n              tag_120\n                /* \"#utility.yul\":3234:3237   */\n              0x80\n                /* \"#utility.yul\":3223:3232   */\n              dup4\n                /* \"#utility.yul\":3219:3238   */\n              add\n                /* \"#utility.yul\":3210:3216   */\n              dup6\n                /* \"#utility.yul\":3166:3239   */\n              tag_84\n              jump\t// in\n            tag_120:\n                /* \"#utility.yul\":3249:3322   */\n              tag_121\n                /* \"#utility.yul\":3317:3320   */\n              0xa0\n                /* \"#utility.yul\":3306:3315   */\n              dup4\n                /* \"#utility.yul\":3302:3321   */\n              add\n                /* \"#utility.yul\":3293:3299   */\n              dup5\n                /* \"#utility.yul\":3249:3322   */\n              tag_87\n              jump\t// in\n            tag_121:\n                /* \"#utility.yul\":2190:3329   */\n              swap8\n              swap7\n              pop\n              pop\n              pop\n              pop\n              pop\n              pop\n              pop\n              jump\t// out\n                /* \"#utility.yul\":3335:3557   */\n            tag_29:\n                /* \"#utility.yul\":3428:3432   */\n              0x00\n                /* \"#utility.yul\":3466:3468   */\n              0x20\n                /* \"#utility.yul\":3455:3464   */\n              dup3\n                /* \"#utility.yul\":3451:3469   */\n              add\n                /* \"#utility.yul\":3443:3469   */\n              swap1\n              pop\n                /* \"#utility.yul\":3479:3550   */\n              tag_123\n                /* \"#utility.yul\":3547:3548   */\n              0x00\n                /* \"#utility.yul\":3536:3545   */\n              dup4\n                /* \"#utility.yul\":3532:3549   */\n              add\n                /* \"#utility.yul\":3523:3529   */\n              dup5\n                /* \"#utility.yul\":3479:3550   */\n              tag_87\n              jump\t// in\n            tag_123:\n                /* \"#utility.yul\":3335:3557   */\n              swap3\n              swap2\n              pop\n              pop\n              jump\t// out\n                /* \"#utility.yul\":3563:3743   */\n            tag_88:\n                /* \"#utility.yul\":3611:3688   */\n              0x4e487b7100000000000000000000000000000000000000000000000000000000\n                /* \"#utility.yul\":3608:3609   */\n              0x00\n                /* \"#utility.yul\":3601:3689   */\n              mstore\n                /* \"#utility.yul\":3708:3712   */\n              0x22\n                /* \"#utility.yul\":3705:3706   */\n              0x04\n                /* \"#utility.yul\":3698:3713   */\n              mstore\n                /* \"#utility.yul\":3732:3736   */\n              0x24\n                /* \"#utility.yul\":3729:3730   */\n              0x00\n                /* \"#utility.yul\":3722:3737   */\n              revert\n                /* \"#utility.yul\":3749:4069   */\n            tag_37:\n                /* \"#utility.yul\":3793:3799   */\n              0x00\n                /* \"#utility.yul\":3830:3831   */\n              0x02\n                /* \"#utility.yul\":3824:3828   */\n              dup3\n                /* \"#utility.yul\":3820:3832   */\n              div\n                /* \"#utility.yul\":3810:3832   */\n              swap1\n              pop\n                /* \"#utility.yul\":3877:3878   */\n              0x01\n                /* \"#utility.yul\":3871:3875   */\n              dup3\n                /* \"#utility.yul\":3867:3879   */\n              and\n                /* \"#utility.yul\":3898:3916   */\n              dup1\n                /* \"#utility.yul\":3888:3969   */\n              tag_126\n              jumpi\n                /* \"#utility.yul\":3954:3958   */\n              0x7f\n                /* \"#utility.yul\":3946:3952   */\n              dup3\n                /* \"#utility.yul\":3942:3959   */\n              and\n                /* \"#utility.yul\":3932:3959   */\n              swap2\n              pop\n                /* \"#utility.yul\":3888:3969   */\n            tag_126:\n                /* \"#utility.yul\":4016:4018   */\n              0x20\n                /* \"#utility.yul\":4008:4014   */\n              dup3\n                /* \"#utility.yul\":4005:4019   */\n              lt\n                /* \"#utility.yul\":3985:4003   */\n              dup2\n                /* \"#utility.yul\":3982:4020   */\n              eq\n                /* \"#utility.yul\":3979:4063   */\n              iszero\n              tag_127\n              jumpi\n                /* \"#utility.yul\":4035:4053   */\n              tag_128\n              tag_88\n              jump\t// in\n            tag_128:\n                /* \"#utility.yul\":3979:4063   */\n            tag_127:\n                /* \"#utility.yul\":3800:4069   */\n              pop\n                /* \"#utility.yul\":3749:4069   */\n              swap2\n              swap1\n              pop\n              jump\t// out\n\n            auxdata: 0xa2646970667358221220d8a96dc8a5a7546a9b6c16d53d6d5185fdd428eb32f311c53fc468535cb37b3664736f6c634300080b0033\n        }\n    }\n\n    auxdata: 0xa2646970667358221220a6f65d0999cef7e40f72582014116d9f87af6c17eea81a87eb491a5cbedb2a2964736f6c634300080b0033\n}\n","bytecode":{"linkReferences":{},"object":"608060405234801561001057600080fd5b506115b0806100206000396000f3fe608060405260043610620000385760003560e01c8063411eded3146200003d5780636d4ce63c146200005d578063a5e38751146200008d575b600080fd5b6200005b6004803603810190620000559190620003de565b620000d1565b005b3480156200006a57600080fd5b50620000756200021d565b6040516200008491906200051a565b60405180910390f35b3480156200009a57600080fd5b50620000b96004803603810190620000b3919062000537565b62000278565b604051620000c891906200051a565b60405180910390f35b85341462000116576040517f08c379a00000000000000000000000000000000000000000000000000000000081526004016200010d90620005ca565b60405180910390fd5b60008a8a8a8a8a8a8a8a8a8a6040516200013090620002b8565b620001459a9998979695949392919062000650565b604051809103906000f08015801562000162573d6000803e3d6000fd5b5090508573ffffffffffffffffffffffffffffffffffffffff166108fc479081150290604051600060405180830381858888f19350505050158015620001ac573d6000803e3d6000fd5b506000819080600181540180825580915050600190039060005260206000200160009091909190916101000a81548173ffffffffffffffffffffffffffffffffffffffff021916908373ffffffffffffffffffffffffffffffffffffffff1602179055505050505050505050505050565b600080600160008054905062000234919062000710565b815481106200024857620002476200074b565b5b9060005260206000200160009054906101000a900473ffffffffffffffffffffffffffffffffffffffff16905090565b600081815481106200028957600080fd5b906000526020600020016000915054906101000a900473ffffffffffffffffffffffffffffffffffffffff1681565b610e00806200077b83390190565b600080fd5b600080fd5b600080fd5b600080fd5b600080fd5b60008083601f840112620002f857620002f7620002d0565b5b8235905067ffffffffffffffff811115620003185762000317620002d5565b5b602083019150836001820283011115620003375762000336620002da565b5b9250929050565b6000819050919050565b62000353816200033e565b81146200035f57600080fd5b50565b600081359050620003738162000348565b92915050565b600073ffffffffffffffffffffffffffffffffffffffff82169050919050565b6000620003a68262000379565b9050919050565b620003b88162000399565b8114620003c457600080fd5b50565b600081359050620003d881620003ad565b92915050565b60008060008060008060008060008060c08b8d031215620004045762000403620002c6565b5b60008b013567ffffffffffffffff811115620004255762000424620002cb565b5b620004338d828e01620002df565b9a509a505060208b013567ffffffffffffffff811115620004595762000458620002cb565b5b620004678d828e01620002df565b985098505060406200047c8d828e0162000362565b96505060606200048f8d828e01620003c7565b95505060808b013567ffffffffffffffff811115620004b357620004b2620002cb565b5b620004c18d828e01620002df565b945094505060a08b013567ffffffffffffffff811115620004e757620004e6620002cb565b5b620004f58d828e01620002df565b92509250509295989b9194979a5092959850565b620005148162000399565b82525050565b600060208201905062000531600083018462000509565b92915050565b60006020828403121562000550576200054f620002c6565b5b6000620005608482850162000362565b91505092915050565b600082825260208201905092915050565b7f73656e742066756c6c207061796d656e74000000000000000000000000000000600082015250565b6000620005b260118362000569565b9150620005bf826200057a565b602082019050919050565b60006020820190508181036000830152620005e581620005a3565b9050919050565b82818337600083830152505050565b6000601f19601f8301169050919050565b60006200061a838562000569565b935062000629838584620005ec565b6200063483620005fb565b840190509392505050565b6200064a816200033e565b82525050565b600060c08201905081810360008301526200066d818c8e6200060c565b9050818103602083015262000684818a8c6200060c565b90506200069560408301896200063f565b620006a4606083018862000509565b8181036080830152620006b98186886200060c565b905081810360a0830152620006d08184866200060c565b90509b9a5050505050505050505050565b7f4e487b7100000000000000000000000000000000000000000000000000000000600052601160045260246000fd5b60006200071d826200033e565b91506200072a836200033e565b92508282101562000740576200073f620006e1565b5b828203905092915050565b7f4e487b7100000000000000000000000000000000000000000000000000000000600052603260045260246000fdfe60806040523480156200001157600080fd5b5060405162000e0038038062000e008339818101604052810190620000379190620003dc565b85600090805190602001906200004f929190620000ef565b50846001908051906020019062000068929190620000ef565b50816002908051906020019062000081929190620000ef565b5080600390805190602001906200009a929190620000ef565b508360048190555082600560006101000a81548173ffffffffffffffffffffffffffffffffffffffff021916908373ffffffffffffffffffffffffffffffffffffffff16021790555050505050505062000559565b828054620000fd9062000523565b90600052602060002090601f0160209004810192826200012157600085556200016d565b82601f106200013c57805160ff19168380011785556200016d565b828001600101855582156200016d579182015b828111156200016c5782518255916020019190600101906200014f565b5b5090506200017c919062000180565b5090565b5b808211156200019b57600081600090555060010162000181565b5090565b6000604051905090565b600080fd5b600080fd5b600080fd5b600080fd5b6000601f19601f8301169050919050565b7f4e487b7100000000000000000000000000000000000000000000000000000000600052604160045260246000fd5b6200020882620001bd565b810181811067ffffffffffffffff821117156200022a5762000229620001ce565b5b80604052505050565b60006200023f6200019f565b90506200024d8282620001fd565b919050565b600067ffffffffffffffff82111562000270576200026f620001ce565b5b6200027b82620001bd565b9050602081019050919050565b60005b83811015620002a85780820151818401526020810190506200028b565b83811115620002b8576000848401525b50505050565b6000620002d5620002cf8462000252565b62000233565b905082815260208101848484011115620002f457620002f3620001b8565b5b6200030184828562000288565b509392505050565b600082601f830112620003215762000320620001b3565b5b815162000333848260208601620002be565b91505092915050565b6000819050919050565b62000351816200033c565b81146200035d57600080fd5b50565b600081519050620003718162000346565b92915050565b600073ffffffffffffffffffffffffffffffffffffffff82169050919050565b6000620003a48262000377565b9050919050565b620003b68162000397565b8114620003c257600080fd5b50565b600081519050620003d681620003ab565b92915050565b60008060008060008060c08789031215620003fc57620003fb620001a9565b5b600087015167ffffffffffffffff8111156200041d576200041c620001ae565b5b6200042b89828a0162000309565b965050602087015167ffffffffffffffff8111156200044f576200044e620001ae565b5b6200045d89828a0162000309565b95505060406200047089828a0162000360565b94505060606200048389828a01620003c5565b935050608087015167ffffffffffffffff811115620004a757620004a6620001ae565b5b620004b589828a0162000309565b92505060a087015167ffffffffffffffff811115620004d957620004d8620001ae565b5b620004e789828a0162000309565b9150509295509295509295565b7f4e487b7100000000000000000000000000000000000000000000000000000000600052602260045260246000fd5b600060028204905060018216806200053c57607f821691505b60208210811415620005535762000552620004f4565b5b50919050565b61089780620005696000396000f3fe608060405234801561001057600080fd5b506004361061007d5760003560e01c80634051ddac1161005b5780634051ddac146100dc5780635dab2420146100ff5780637150d8ae1461011d578063f3ccaac01461013b5761007d565b806306fdde031461008257806308551a53146100a05780633fa4f245146100be575b600080fd5b61008a610159565b60405161009791906106d1565b60405180910390f35b6100a86101e7565b6040516100b591906106d1565b60405180910390f35b6100c6610275565b6040516100d3919061070c565b60405180910390f35b6100e461027b565b6040516100f696959493929190610768565b60405180910390f35b6101076104f6565b60405161011491906107e5565b60405180910390f35b61012561051c565b60405161013291906106d1565b60405180910390f35b6101436105aa565b60405161015091906106d1565b60405180910390f35b600080546101669061082f565b80601f01602080910402602001604051908101604052809291908181526020018280546101929061082f565b80156101df5780601f106101b4576101008083540402835291602001916101df565b820191906000526020600020905b8154815290600101906020018083116101c257829003601f168201915b505050505081565b600380546101f49061082f565b80601f01602080910402602001604051908101604052809291908181526020018280546102209061082f565b801561026d5780601f106102425761010080835404028352916020019161026d565b820191906000526020600020905b81548152906001019060200180831161025057829003601f168201915b505050505081565b60045481565b6060806060806000806000600160026003600454600560009054906101000a900473ffffffffffffffffffffffffffffffffffffffff168580546102be9061082f565b80601f01602080910402602001604051908101604052809291908181526020018280546102ea9061082f565b80156103375780601f1061030c57610100808354040283529160200191610337565b820191906000526020600020905b81548152906001019060200180831161031a57829003601f168201915b5050505050955084805461034a9061082f565b80601f01602080910402602001604051908101604052809291908181526020018280546103769061082f565b80156103c35780601f10610398576101008083540402835291602001916103c3565b820191906000526020600020905b8154815290600101906020018083116103a657829003601f168201915b505050505094508380546103d69061082f565b80601f01602080910402602001604051908101604052809291908181526020018280546104029061082f565b801561044f5780601f106104245761010080835404028352916020019161044f565b820191906000526020600020905b81548152906001019060200180831161043257829003601f168201915b505050505093508280546104629061082f565b80601f016020809104026020016040519081016040528092919081815260200182805461048e9061082f565b80156104db5780601f106104b0576101008083540402835291602001916104db565b820191906000526020600020905b8154815290600101906020018083116104be57829003601f168201915b50505050509250955095509550955095509550909192939495565b600560009054906101000a900473ffffffffffffffffffffffffffffffffffffffff1681565b600280546105299061082f565b80601f01602080910402602001604051908101604052809291908181526020018280546105559061082f565b80156105a25780601f10610577576101008083540402835291602001916105a2565b820191906000526020600020905b81548152906001019060200180831161058557829003601f168201915b505050505081565b600180546105b79061082f565b80601f01602080910402602001604051908101604052809291908181526020018280546105e39061082f565b80156106305780601f1061060557610100808354040283529160200191610630565b820191906000526020600020905b81548152906001019060200180831161061357829003601f168201915b505050505081565b600081519050919050565b600082825260208201905092915050565b60005b83811015610672578082015181840152602081019050610657565b83811115610681576000848401525b50505050565b6000601f19601f8301169050919050565b60006106a382610638565b6106ad8185610643565b93506106bd818560208601610654565b6106c681610687565b840191505092915050565b600060208201905081810360008301526106eb8184610698565b905092915050565b6000819050919050565b610706816106f3565b82525050565b600060208201905061072160008301846106fd565b92915050565b600073ffffffffffffffffffffffffffffffffffffffff82169050919050565b600061075282610727565b9050919050565b61076281610747565b82525050565b600060c08201905081810360008301526107828189610698565b905081810360208301526107968188610698565b905081810360408301526107aa8187610698565b905081810360608301526107be8186610698565b90506107cd60808301856106fd565b6107da60a0830184610759565b979650505050505050565b60006020820190506107fa6000830184610759565b92915050565b7f4e487b7100000000000000000000000000000000000000000000000000000000600052602260045260246000fd5b6000600282049050600182168061084757607f821691505b6020821081141561085b5761085a610800565b5b5091905056fea2646970667358221220d8a96dc8a5a7546a9b6c16d53d6d5185fdd428eb32f311c53fc468535cb37b3664736f6c634300080b0033a2646970667358221220a6f65d0999cef7e40f72582014116d9f87af6c17eea81a87eb491a5cbedb2a2964736f6c634300080b0033","opcodes":"PUSH1 0x80 PUSH1 0x40 MSTORE CALLVALUE DUP1 ISZERO PUSH2 0x10 JUMPI PUSH1 0x0 DUP1 REVERT JUMPDEST POP PUSH2 0x15B0 DUP1 PUSH2 0x20 PUSH1 0x0 CODECOPY PUSH1 0x0 RETURN INVALID PUSH1 0x80 PUSH1 0x40 MSTORE PUSH1 0x4 CALLDATASIZE LT PUSH3 0x38 JUMPI PUSH1 0x0 CALLDATALOAD PUSH1 0xE0 SHR DUP1 PUSH4 0x411EDED3 EQ PUSH3 0x3D JUMPI DUP1 PUSH4 0x6D4CE63C EQ PUSH3 0x5D JUMPI DUP1 PUSH4 0xA5E38751 EQ PUSH3 0x8D JUMPI JUMPDEST PUSH1 0x0 DUP1 REVERT JUMPDEST PUSH3 0x5B PUSH1 0x4 DUP1 CALLDATASIZE SUB DUP2 ADD SWAP1 PUSH3 0x55 SWAP2 SWAP1 PUSH3 0x3DE JUMP JUMPDEST PUSH3 0xD1 JUMP JUMPDEST STOP JUMPDEST CALLVALUE DUP1 ISZERO PUSH3 0x6A JUMPI PUSH1 0x0 DUP1 REVERT JUMPDEST POP PUSH3 0x75 PUSH3 0x21D JUMP JUMPDEST PUSH1 0x40 MLOAD PUSH3 0x84 SWAP2 SWAP1 PUSH3 0x51A JUMP JUMPDEST PUSH1 0x40 MLOAD DUP1 SWAP2 SUB SWAP1 RETURN JUMPDEST CALLVALUE DUP1 ISZERO PUSH3 0x9A JUMPI PUSH1 0x0 DUP1 REVERT JUMPDEST POP PUSH3 0xB9 PUSH1 0x4 DUP1 CALLDATASIZE SUB DUP2 ADD SWAP1 PUSH3 0xB3 SWAP2 SWAP1 PUSH3 0x537 JUMP JUMPDEST PUSH3 0x278 JUMP JUMPDEST PUSH1 0x40 MLOAD PUSH3 0xC8 SWAP2 SWAP1 PUSH3 0x51A JUMP JUMPDEST PUSH1 0x40 MLOAD DUP1 SWAP2 SUB SWAP1 RETURN JUMPDEST DUP6 CALLVALUE EQ PUSH3 0x116 JUMPI PUSH1 0x40 MLOAD PUSH32 0x8C379A000000000000000000000000000000000000000000000000000000000 DUP2 MSTORE PUSH1 0x4 ADD PUSH3 0x10D SWAP1 PUSH3 0x5CA JUMP JUMPDEST PUSH1 0x40 MLOAD DUP1 SWAP2 SUB SWAP1 REVERT JUMPDEST PUSH1 0x0 DUP11 DUP11 DUP11 DUP11 DUP11 DUP11 DUP11 DUP11 DUP11 DUP11 PUSH1 0x40 MLOAD PUSH3 0x130 SWAP1 PUSH3 0x2B8 JUMP JUMPDEST PUSH3 0x145 SWAP11 SWAP10 SWAP9 SWAP8 SWAP7 SWAP6 SWAP5 SWAP4 SWAP3 SWAP2 SWAP1 PUSH3 0x650 JUMP JUMPDEST PUSH1 0x40 MLOAD DUP1 SWAP2 SUB SWAP1 PUSH1 0x0 CREATE DUP1 ISZERO DUP1 ISZERO PUSH3 0x162 JUMPI RETURNDATASIZE PUSH1 0x0 DUP1 RETURNDATACOPY RETURNDATASIZE PUSH1 0x0 REVERT JUMPDEST POP SWAP1 POP DUP6 PUSH20 0xFFFFFFFFFFFFFFFFFFFFFFFFFFFFFFFFFFFFFFFF AND PUSH2 0x8FC SELFBALANCE SWAP1 DUP2 ISZERO MUL SWAP1 PUSH1 0x40 MLOAD PUSH1 0x0 PUSH1 0x40 MLOAD DUP1 DUP4 SUB DUP2 DUP6 DUP9 DUP9 CALL SWAP4 POP POP POP POP ISZERO DUP1 ISZERO PUSH3 0x1AC JUMPI RETURNDATASIZE PUSH1 0x0 DUP1 RETURNDATACOPY RETURNDATASIZE PUSH1 0x0 REVERT JUMPDEST POP PUSH1 0x0 DUP2 SWAP1 DUP1 PUSH1 0x1 DUP2 SLOAD ADD DUP1 DUP3 SSTORE DUP1 SWAP2 POP POP PUSH1 0x1 SWAP1 SUB SWAP1 PUSH1 0x0 MSTORE PUSH1 0x20 PUSH1 0x0 KECCAK256 ADD PUSH1 0x0 SWAP1 SWAP2 SWAP1 SWAP2 SWAP1 SWAP2 PUSH2 0x100 EXP DUP2 SLOAD DUP2 PUSH20 0xFFFFFFFFFFFFFFFFFFFFFFFFFFFFFFFFFFFFFFFF MUL NOT AND SWAP1 DUP4 PUSH20 0xFFFFFFFFFFFFFFFFFFFFFFFFFFFFFFFFFFFFFFFF AND MUL OR SWAP1 SSTORE POP POP POP POP POP POP POP POP POP POP POP POP JUMP JUMPDEST PUSH1 0x0 DUP1 PUSH1 0x1 PUSH1 0x0 DUP1 SLOAD SWAP1 POP PUSH3 0x234 SWAP2 SWAP1 PUSH3 0x710 JUMP JUMPDEST DUP2 SLOAD DUP2 LT PUSH3 0x248 JUMPI PUSH3 0x247 PUSH3 0x74B JUMP JUMPDEST JUMPDEST SWAP1 PUSH1 0x0 MSTORE PUSH1 0x20 PUSH1 0x0 KECCAK256 ADD PUSH1 0x0 SWAP1 SLOAD SWAP1 PUSH2 0x100 EXP SWAP1 DIV PUSH20 0xFFFFFFFFFFFFFFFFFFFFFFFFFFFFFFFFFFFFFFFF AND SWAP1 POP SWAP1 JUMP JUMPDEST PUSH1 0x0 DUP2 DUP2 SLOAD DUP2 LT PUSH3 0x289 JUMPI PUSH1 0x0 DUP1 REVERT JUMPDEST SWAP1 PUSH1 0x0 MSTORE PUSH1 0x20 PUSH1 0x0 KECCAK256 ADD PUSH1 0x0 SWAP2 POP SLOAD SWAP1 PUSH2 0x100 EXP SWAP1 DIV PUSH20 0xFFFFFFFFFFFFFFFFFFFFFFFFFFFFFFFFFFFFFFFF AND DUP2 JUMP JUMPDEST PUSH2 0xE00 DUP1 PUSH3 0x77B DUP4 CODECOPY ADD SWAP1 JUMP JUMPDEST PUSH1 0x0 DUP1 REVERT JUMPDEST PUSH1 0x0 DUP1 REVERT JUMPDEST PUSH1 0x0 DUP1 REVERT JUMPDEST PUSH1 0x0 DUP1 REVERT JUMPDEST PUSH1 0x0 DUP1 REVERT JUMPDEST PUSH1 0x0 DUP1 DUP4 PUSH1 0x1F DUP5 ADD SLT PUSH3 0x2F8 JUMPI PUSH3 0x2F7 PUSH3 0x2D0 JUMP JUMPDEST JUMPDEST DUP3 CALLDATALOAD SWAP1 POP PUSH8 0xFFFFFFFFFFFFFFFF DUP2 GT ISZERO PUSH3 0x318 JUMPI PUSH3 0x317 PUSH3 0x2D5 JUMP JUMPDEST JUMPDEST PUSH1 0x20 DUP4 ADD SWAP2 POP DUP4 PUSH1 0x1 DUP3 MUL DUP4 ADD GT ISZERO PUSH3 0x337 JUMPI PUSH3 0x336 PUSH3 0x2DA JUMP JUMPDEST JUMPDEST SWAP3 POP SWAP3 SWAP1 POP JUMP JUMPDEST PUSH1 0x0 DUP2 SWAP1 POP SWAP2 SWAP1 POP JUMP JUMPDEST PUSH3 0x353 DUP2 PUSH3 0x33E JUMP JUMPDEST DUP2 EQ PUSH3 0x35F JUMPI PUSH1 0x0 DUP1 REVERT JUMPDEST POP JUMP JUMPDEST PUSH1 0x0 DUP2 CALLDATALOAD SWAP1 POP PUSH3 0x373 DUP2 PUSH3 0x348 JUMP JUMPDEST SWAP3 SWAP2 POP POP JUMP JUMPDEST PUSH1 0x0 PUSH20 0xFFFFFFFFFFFFFFFFFFFFFFFFFFFFFFFFFFFFFFFF DUP3 AND SWAP1 POP SWAP2 SWAP1 POP JUMP JUMPDEST PUSH1 0x0 PUSH3 0x3A6 DUP3 PUSH3 0x379 JUMP JUMPDEST SWAP1 POP SWAP2 SWAP1 POP JUMP JUMPDEST PUSH3 0x3B8 DUP2 PUSH3 0x399 JUMP JUMPDEST DUP2 EQ PUSH3 0x3C4 JUMPI PUSH1 0x0 DUP1 REVERT JUMPDEST POP JUMP JUMPDEST PUSH1 0x0 DUP2 CALLDATALOAD SWAP1 POP PUSH3 0x3D8 DUP2 PUSH3 0x3AD JUMP JUMPDEST SWAP3 SWAP2 POP POP JUMP JUMPDEST PUSH1 0x0 DUP1 PUSH1 0x0 DUP1 PUSH1 0x0 DUP1 PUSH1 0x0 DUP1 PUSH1 0x0 DUP1 PUSH1 0xC0 DUP12 DUP14 SUB SLT ISZERO PUSH3 0x404 JUMPI PUSH3 0x403 PUSH3 0x2C6 JUMP JUMPDEST JUMPDEST PUSH1 0x0 DUP12 ADD CALLDATALOAD PUSH8 0xFFFFFFFFFFFFFFFF DUP2 GT ISZERO PUSH3 0x425 JUMPI PUSH3 0x424 PUSH3 0x2CB JUMP JUMPDEST JUMPDEST PUSH3 0x433 DUP14 DUP3 DUP15 ADD PUSH3 0x2DF JUMP JUMPDEST SWAP11 POP SWAP11 POP POP PUSH1 0x20 DUP12 ADD CALLDATALOAD PUSH8 0xFFFFFFFFFFFFFFFF DUP2 GT ISZERO PUSH3 0x459 JUMPI PUSH3 0x458 PUSH3 0x2CB JUMP JUMPDEST JUMPDEST PUSH3 0x467 DUP14 DUP3 DUP15 ADD PUSH3 0x2DF JUMP JUMPDEST SWAP9 POP SWAP9 POP POP PUSH1 0x40 PUSH3 0x47C DUP14 DUP3 DUP15 ADD PUSH3 0x362 JUMP JUMPDEST SWAP7 POP POP PUSH1 0x60 PUSH3 0x48F DUP14 DUP3 DUP15 ADD PUSH3 0x3C7 JUMP JUMPDEST SWAP6 POP POP PUSH1 0x80 DUP12 ADD CALLDATALOAD PUSH8 0xFFFFFFFFFFFFFFFF DUP2 GT ISZERO PUSH3 0x4B3 JUMPI PUSH3 0x4B2 PUSH3 0x2CB JUMP JUMPDEST JUMPDEST PUSH3 0x4C1 DUP14 DUP3 DUP15 ADD PUSH3 0x2DF JUMP JUMPDEST SWAP5 POP SWAP5 POP POP PUSH1 0xA0 DUP12 ADD CALLDATALOAD PUSH8 0xFFFFFFFFFFFFFFFF DUP2 GT ISZERO PUSH3 0x4E7 JUMPI PUSH3 0x4E6 PUSH3 0x2CB JUMP JUMPDEST JUMPDEST PUSH3 0x4F5 DUP14 DUP3 DUP15 ADD PUSH3 0x2DF JUMP JUMPDEST SWAP3 POP SWAP3 POP POP SWAP3 SWAP6 SWAP9 SWAP12 SWAP2 SWAP5 SWAP8 SWAP11 POP SWAP3 SWAP6 SWAP9 POP JUMP JUMPDEST PUSH3 0x514 DUP2 PUSH3 0x399 JUMP JUMPDEST DUP3 MSTORE POP POP JUMP JUMPDEST PUSH1 0x0 PUSH1 0x20 DUP3 ADD SWAP1 POP PUSH3 0x531 PUSH1 0x0 DUP4 ADD DUP5 PUSH3 0x509 JUMP JUMPDEST SWAP3 SWAP2 POP POP JUMP JUMPDEST PUSH1 0x0 PUSH1 0x20 DUP3 DUP5 SUB SLT ISZERO PUSH3 0x550 JUMPI PUSH3 0x54F PUSH3 0x2C6 JUMP JUMPDEST JUMPDEST PUSH1 0x0 PUSH3 0x560 DUP5 DUP3 DUP6 ADD PUSH3 0x362 JUMP JUMPDEST SWAP2 POP POP SWAP3 SWAP2 POP POP JUMP JUMPDEST PUSH1 0x0 DUP3 DUP3 MSTORE PUSH1 0x20 DUP3 ADD SWAP1 POP SWAP3 SWAP2 POP POP JUMP JUMPDEST PUSH32 0x73656E742066756C6C207061796D656E74000000000000000000000000000000 PUSH1 0x0 DUP3 ADD MSTORE POP JUMP JUMPDEST PUSH1 0x0 PUSH3 0x5B2 PUSH1 0x11 DUP4 PUSH3 0x569 JUMP JUMPDEST SWAP2 POP PUSH3 0x5BF DUP3 PUSH3 0x57A JUMP JUMPDEST PUSH1 0x20 DUP3 ADD SWAP1 POP SWAP2 SWAP1 POP JUMP JUMPDEST PUSH1 0x0 PUSH1 0x20 DUP3 ADD SWAP1 POP DUP2 DUP2 SUB PUSH1 0x0 DUP4 ADD MSTORE PUSH3 0x5E5 DUP2 PUSH3 0x5A3 JUMP JUMPDEST SWAP1 POP SWAP2 SWAP1 POP JUMP JUMPDEST DUP3 DUP2 DUP4 CALLDATACOPY PUSH1 0x0 DUP4 DUP4 ADD MSTORE POP POP POP JUMP JUMPDEST PUSH1 0x0 PUSH1 0x1F NOT PUSH1 0x1F DUP4 ADD AND SWAP1 POP SWAP2 SWAP1 POP JUMP JUMPDEST PUSH1 0x0 PUSH3 0x61A DUP4 DUP6 PUSH3 0x569 JUMP JUMPDEST SWAP4 POP PUSH3 0x629 DUP4 DUP6 DUP5 PUSH3 0x5EC JUMP JUMPDEST PUSH3 0x634 DUP4 PUSH3 0x5FB JUMP JUMPDEST DUP5 ADD SWAP1 POP SWAP4 SWAP3 POP POP POP JUMP JUMPDEST PUSH3 0x64A DUP2 PUSH3 0x33E JUMP JUMPDEST DUP3 MSTORE POP POP JUMP JUMPDEST PUSH1 0x0 PUSH1 0xC0 DUP3 ADD SWAP1 POP DUP2 DUP2 SUB PUSH1 0x0 DUP4 ADD MSTORE PUSH3 0x66D DUP2 DUP13 DUP15 PUSH3 0x60C JUMP JUMPDEST SWAP1 POP DUP2 DUP2 SUB PUSH1 0x20 DUP4 ADD MSTORE PUSH3 0x684 DUP2 DUP11 DUP13 PUSH3 0x60C JUMP JUMPDEST SWAP1 POP PUSH3 0x695 PUSH1 0x40 DUP4 ADD DUP10 PUSH3 0x63F JUMP JUMPDEST PUSH3 0x6A4 PUSH1 0x60 DUP4 ADD DUP9 PUSH3 0x509 JUMP JUMPDEST DUP2 DUP2 SUB PUSH1 0x80 DUP4 ADD MSTORE PUSH3 0x6B9 DUP2 DUP7 DUP9 PUSH3 0x60C JUMP JUMPDEST SWAP1 POP DUP2 DUP2 SUB PUSH1 0xA0 DUP4 ADD MSTORE PUSH3 0x6D0 DUP2 DUP5 DUP7 PUSH3 0x60C JUMP JUMPDEST SWAP1 POP SWAP12 SWAP11 POP POP POP POP POP POP POP POP POP POP POP JUMP JUMPDEST PUSH32 0x4E487B7100000000000000000000000000000000000000000000000000000000 PUSH1 0x0 MSTORE PUSH1 0x11 PUSH1 0x4 MSTORE PUSH1 0x24 PUSH1 0x0 REVERT JUMPDEST PUSH1 0x0 PUSH3 0x71D DUP3 PUSH3 0x33E JUMP JUMPDEST SWAP2 POP PUSH3 0x72A DUP4 PUSH3 0x33E JUMP JUMPDEST SWAP3 POP DUP3 DUP3 LT ISZERO PUSH3 0x740 JUMPI PUSH3 0x73F PUSH3 0x6E1 JUMP JUMPDEST JUMPDEST DUP3 DUP3 SUB SWAP1 POP SWAP3 SWAP2 POP POP JUMP JUMPDEST PUSH32 0x4E487B7100000000000000000000000000000000000000000000000000000000 PUSH1 0x0 MSTORE PUSH1 0x32 PUSH1 0x4 MSTORE PUSH1 0x24 PUSH1 0x0 REVERT INVALID PUSH1 0x80 PUSH1 0x40 MSTORE CALLVALUE DUP1 ISZERO PUSH3 0x11 JUMPI PUSH1 0x0 DUP1 REVERT JUMPDEST POP PUSH1 0x40 MLOAD PUSH3 0xE00 CODESIZE SUB DUP1 PUSH3 0xE00 DUP4 CODECOPY DUP2 DUP2 ADD PUSH1 0x40 MSTORE DUP2 ADD SWAP1 PUSH3 0x37 SWAP2 SWAP1 PUSH3 0x3DC JUMP JUMPDEST DUP6 PUSH1 0x0 SWAP1 DUP1 MLOAD SWAP1 PUSH1 0x20 ADD SWAP1 PUSH3 0x4F SWAP3 SWAP2 SWAP1 PUSH3 0xEF JUMP JUMPDEST POP DUP5 PUSH1 0x1 SWAP1 DUP1 MLOAD SWAP1 PUSH1 0x20 ADD SWAP1 PUSH3 0x68 SWAP3 SWAP2 SWAP1 PUSH3 0xEF JUMP JUMPDEST POP DUP2 PUSH1 0x2 SWAP1 DUP1 MLOAD SWAP1 PUSH1 0x20 ADD SWAP1 PUSH3 0x81 SWAP3 SWAP2 SWAP1 PUSH3 0xEF JUMP JUMPDEST POP DUP1 PUSH1 0x3 SWAP1 DUP1 MLOAD SWAP1 PUSH1 0x20 ADD SWAP1 PUSH3 0x9A SWAP3 SWAP2 SWAP1 PUSH3 0xEF JUMP JUMPDEST POP DUP4 PUSH1 0x4 DUP2 SWAP1 SSTORE POP DUP3 PUSH1 0x5 PUSH1 0x0 PUSH2 0x100 EXP DUP2 SLOAD DUP2 PUSH20 0xFFFFFFFFFFFFFFFFFFFFFFFFFFFFFFFFFFFFFFFF MUL NOT AND SWAP1 DUP4 PUSH20 0xFFFFFFFFFFFFFFFFFFFFFFFFFFFFFFFFFFFFFFFF AND MUL OR SWAP1 SSTORE POP POP POP POP POP POP POP PUSH3 0x559 JUMP JUMPDEST DUP3 DUP1 SLOAD PUSH3 0xFD SWAP1 PUSH3 0x523 JUMP JUMPDEST SWAP1 PUSH1 0x0 MSTORE PUSH1 0x20 PUSH1 0x0 KECCAK256 SWAP1 PUSH1 0x1F ADD PUSH1 0x20 SWAP1 DIV DUP2 ADD SWAP3 DUP3 PUSH3 0x121 JUMPI PUSH1 0x0 DUP6 SSTORE PUSH3 0x16D JUMP JUMPDEST DUP3 PUSH1 0x1F LT PUSH3 0x13C JUMPI DUP1 MLOAD PUSH1 0xFF NOT AND DUP4 DUP1 ADD OR DUP6 SSTORE PUSH3 0x16D JUMP JUMPDEST DUP3 DUP1 ADD PUSH1 0x1 ADD DUP6 SSTORE DUP3 ISZERO PUSH3 0x16D JUMPI SWAP2 DUP3 ADD JUMPDEST DUP3 DUP2 GT ISZERO PUSH3 0x16C JUMPI DUP3 MLOAD DUP3 SSTORE SWAP2 PUSH1 0x20 ADD SWAP2 SWAP1 PUSH1 0x1 ADD SWAP1 PUSH3 0x14F JUMP JUMPDEST JUMPDEST POP SWAP1 POP PUSH3 0x17C SWAP2 SWAP1 PUSH3 0x180 JUMP JUMPDEST POP SWAP1 JUMP JUMPDEST JUMPDEST DUP1 DUP3 GT ISZERO PUSH3 0x19B JUMPI PUSH1 0x0 DUP2 PUSH1 0x0 SWAP1 SSTORE POP PUSH1 0x1 ADD PUSH3 0x181 JUMP JUMPDEST POP SWAP1 JUMP JUMPDEST PUSH1 0x0 PUSH1 0x40 MLOAD SWAP1 POP SWAP1 JUMP JUMPDEST PUSH1 0x0 DUP1 REVERT JUMPDEST PUSH1 0x0 DUP1 REVERT JUMPDEST PUSH1 0x0 DUP1 REVERT JUMPDEST PUSH1 0x0 DUP1 REVERT JUMPDEST PUSH1 0x0 PUSH1 0x1F NOT PUSH1 0x1F DUP4 ADD AND SWAP1 POP SWAP2 SWAP1 POP JUMP JUMPDEST PUSH32 0x4E487B7100000000000000000000000000000000000000000000000000000000 PUSH1 0x0 MSTORE PUSH1 0x41 PUSH1 0x4 MSTORE PUSH1 0x24 PUSH1 0x0 REVERT JUMPDEST PUSH3 0x208 DUP3 PUSH3 0x1BD JUMP JUMPDEST DUP2 ADD DUP2 DUP2 LT PUSH8 0xFFFFFFFFFFFFFFFF DUP3 GT OR ISZERO PUSH3 0x22A JUMPI PUSH3 0x229 PUSH3 0x1CE JUMP JUMPDEST JUMPDEST DUP1 PUSH1 0x40 MSTORE POP POP POP JUMP JUMPDEST PUSH1 0x0 PUSH3 0x23F PUSH3 0x19F JUMP JUMPDEST SWAP1 POP PUSH3 0x24D DUP3 DUP3 PUSH3 0x1FD JUMP JUMPDEST SWAP2 SWAP1 POP JUMP JUMPDEST PUSH1 0x0 PUSH8 0xFFFFFFFFFFFFFFFF DUP3 GT ISZERO PUSH3 0x270 JUMPI PUSH3 0x26F PUSH3 0x1CE JUMP JUMPDEST JUMPDEST PUSH3 0x27B DUP3 PUSH3 0x1BD JUMP JUMPDEST SWAP1 POP PUSH1 0x20 DUP2 ADD SWAP1 POP SWAP2 SWAP1 POP JUMP JUMPDEST PUSH1 0x0 JUMPDEST DUP4 DUP2 LT ISZERO PUSH3 0x2A8 JUMPI DUP1 DUP3 ADD MLOAD DUP2 DUP5 ADD MSTORE PUSH1 0x20 DUP2 ADD SWAP1 POP PUSH3 0x28B JUMP JUMPDEST DUP4 DUP2 GT ISZERO PUSH3 0x2B8 JUMPI PUSH1 0x0 DUP5 DUP5 ADD MSTORE JUMPDEST POP POP POP POP JUMP JUMPDEST PUSH1 0x0 PUSH3 0x2D5 PUSH3 0x2CF DUP5 PUSH3 0x252 JUMP JUMPDEST PUSH3 0x233 JUMP JUMPDEST SWAP1 POP DUP3 DUP2 MSTORE PUSH1 0x20 DUP2 ADD DUP5 DUP5 DUP5 ADD GT ISZERO PUSH3 0x2F4 JUMPI PUSH3 0x2F3 PUSH3 0x1B8 JUMP JUMPDEST JUMPDEST PUSH3 0x301 DUP5 DUP3 DUP6 PUSH3 0x288 JUMP JUMPDEST POP SWAP4 SWAP3 POP POP POP JUMP JUMPDEST PUSH1 0x0 DUP3 PUSH1 0x1F DUP4 ADD SLT PUSH3 0x321 JUMPI PUSH3 0x320 PUSH3 0x1B3 JUMP JUMPDEST JUMPDEST DUP2 MLOAD PUSH3 0x333 DUP5 DUP3 PUSH1 0x20 DUP7 ADD PUSH3 0x2BE JUMP JUMPDEST SWAP2 POP POP SWAP3 SWAP2 POP POP JUMP JUMPDEST PUSH1 0x0 DUP2 SWAP1 POP SWAP2 SWAP1 POP JUMP JUMPDEST PUSH3 0x351 DUP2 PUSH3 0x33C JUMP JUMPDEST DUP2 EQ PUSH3 0x35D JUMPI PUSH1 0x0 DUP1 REVERT JUMPDEST POP JUMP JUMPDEST PUSH1 0x0 DUP2 MLOAD SWAP1 POP PUSH3 0x371 DUP2 PUSH3 0x346 JUMP JUMPDEST SWAP3 SWAP2 POP POP JUMP JUMPDEST PUSH1 0x0 PUSH20 0xFFFFFFFFFFFFFFFFFFFFFFFFFFFFFFFFFFFFFFFF DUP3 AND SWAP1 POP SWAP2 SWAP1 POP JUMP JUMPDEST PUSH1 0x0 PUSH3 0x3A4 DUP3 PUSH3 0x377 JUMP JUMPDEST SWAP1 POP SWAP2 SWAP1 POP JUMP JUMPDEST PUSH3 0x3B6 DUP2 PUSH3 0x397 JUMP JUMPDEST DUP2 EQ PUSH3 0x3C2 JUMPI PUSH1 0x0 DUP1 REVERT JUMPDEST POP JUMP JUMPDEST PUSH1 0x0 DUP2 MLOAD SWAP1 POP PUSH3 0x3D6 DUP2 PUSH3 0x3AB JUMP JUMPDEST SWAP3 SWAP2 POP POP JUMP JUMPDEST PUSH1 0x0 DUP1 PUSH1 0x0 DUP1 PUSH1 0x0 DUP1 PUSH1 0xC0 DUP8 DUP10 SUB SLT ISZERO PUSH3 0x3FC JUMPI PUSH3 0x3FB PUSH3 0x1A9 JUMP JUMPDEST JUMPDEST PUSH1 0x0 DUP8 ADD MLOAD PUSH8 0xFFFFFFFFFFFFFFFF DUP2 GT ISZERO PUSH3 0x41D JUMPI PUSH3 0x41C PUSH3 0x1AE JUMP JUMPDEST JUMPDEST PUSH3 0x42B DUP10 DUP3 DUP11 ADD PUSH3 0x309 JUMP JUMPDEST SWAP7 POP POP PUSH1 0x20 DUP8 ADD MLOAD PUSH8 0xFFFFFFFFFFFFFFFF DUP2 GT ISZERO PUSH3 0x44F JUMPI PUSH3 0x44E PUSH3 0x1AE JUMP JUMPDEST JUMPDEST PUSH3 0x45D DUP10 DUP3 DUP11 ADD PUSH3 0x309 JUMP JUMPDEST SWAP6 POP POP PUSH1 0x40 PUSH3 0x470 DUP10 DUP3 DUP11 ADD PUSH3 0x360 JUMP JUMPDEST SWAP5 POP POP PUSH1 0x60 PUSH3 0x483 DUP10 DUP3 DUP11 ADD PUSH3 0x3C5 JUMP JUMPDEST SWAP4 POP POP PUSH1 0x80 DUP8 ADD MLOAD PUSH8 0xFFFFFFFFFFFFFFFF DUP2 GT ISZERO PUSH3 0x4A7 JUMPI PUSH3 0x4A6 PUSH3 0x1AE JUMP JUMPDEST JUMPDEST PUSH3 0x4B5 DUP10 DUP3 DUP11 ADD PUSH3 0x309 JUMP JUMPDEST SWAP3 POP POP PUSH1 0xA0 DUP8 ADD MLOAD PUSH8 0xFFFFFFFFFFFFFFFF DUP2 GT ISZERO PUSH3 0x4D9 JUMPI PUSH3 0x4D8 PUSH3 0x1AE JUMP JUMPDEST JUMPDEST PUSH3 0x4E7 DUP10 DUP3 DUP11 ADD PUSH3 0x309 JUMP JUMPDEST SWAP2 POP POP SWAP3 SWAP6 POP SWAP3 SWAP6 POP SWAP3 SWAP6 JUMP JUMPDEST PUSH32 0x4E487B7100000000000000000000000000000000000000000000000000000000 PUSH1 0x0 MSTORE PUSH1 0x22 PUSH1 0x4 MSTORE PUSH1 0x24 PUSH1 0x0 REVERT JUMPDEST PUSH1 0x0 PUSH1 0x2 DUP3 DIV SWAP1 POP PUSH1 0x1 DUP3 AND DUP1 PUSH3 0x53C JUMPI PUSH1 0x7F DUP3 AND SWAP2 POP JUMPDEST PUSH1 0x20 DUP3 LT DUP2 EQ ISZERO PUSH3 0x553 JUMPI PUSH3 0x552 PUSH3 0x4F4 JUMP JUMPDEST JUMPDEST POP SWAP2 SWAP1 POP JUMP JUMPDEST PUSH2 0x897 DUP1 PUSH3 0x569 PUSH1 0x0 CODECOPY PUSH1 0x0 RETURN INVALID PUSH1 0x80 PUSH1 0x40 MSTORE CALLVALUE DUP1 ISZERO PUSH2 0x10 JUMPI PUSH1 0x0 DUP1 REVERT JUMPDEST POP PUSH1 0x4 CALLDATASIZE LT PUSH2 0x7D JUMPI PUSH1 0x0 CALLDATALOAD PUSH1 0xE0 SHR DUP1 PUSH4 0x4051DDAC GT PUSH2 0x5B JUMPI DUP1 PUSH4 0x4051DDAC EQ PUSH2 0xDC JUMPI DUP1 PUSH4 0x5DAB2420 EQ PUSH2 0xFF JUMPI DUP1 PUSH4 0x7150D8AE EQ PUSH2 0x11D JUMPI DUP1 PUSH4 0xF3CCAAC0 EQ PUSH2 0x13B JUMPI PUSH2 0x7D JUMP JUMPDEST DUP1 PUSH4 0x6FDDE03 EQ PUSH2 0x82 JUMPI DUP1 PUSH4 0x8551A53 EQ PUSH2 0xA0 JUMPI DUP1 PUSH4 0x3FA4F245 EQ PUSH2 0xBE JUMPI JUMPDEST PUSH1 0x0 DUP1 REVERT JUMPDEST PUSH2 0x8A PUSH2 0x159 JUMP JUMPDEST PUSH1 0x40 MLOAD PUSH2 0x97 SWAP2 SWAP1 PUSH2 0x6D1 JUMP JUMPDEST PUSH1 0x40 MLOAD DUP1 SWAP2 SUB SWAP1 RETURN JUMPDEST PUSH2 0xA8 PUSH2 0x1E7 JUMP JUMPDEST PUSH1 0x40 MLOAD PUSH2 0xB5 SWAP2 SWAP1 PUSH2 0x6D1 JUMP JUMPDEST PUSH1 0x40 MLOAD DUP1 SWAP2 SUB SWAP1 RETURN JUMPDEST PUSH2 0xC6 PUSH2 0x275 JUMP JUMPDEST PUSH1 0x40 MLOAD PUSH2 0xD3 SWAP2 SWAP1 PUSH2 0x70C JUMP JUMPDEST PUSH1 0x40 MLOAD DUP1 SWAP2 SUB SWAP1 RETURN JUMPDEST PUSH2 0xE4 PUSH2 0x27B JUMP JUMPDEST PUSH1 0x40 MLOAD PUSH2 0xF6 SWAP7 SWAP6 SWAP5 SWAP4 SWAP3 SWAP2 SWAP1 PUSH2 0x768 JUMP JUMPDEST PUSH1 0x40 MLOAD DUP1 SWAP2 SUB SWAP1 RETURN JUMPDEST PUSH2 0x107 PUSH2 0x4F6 JUMP JUMPDEST PUSH1 0x40 MLOAD PUSH2 0x114 SWAP2 SWAP1 PUSH2 0x7E5 JUMP JUMPDEST PUSH1 0x40 MLOAD DUP1 SWAP2 SUB SWAP1 RETURN JUMPDEST PUSH2 0x125 PUSH2 0x51C JUMP JUMPDEST PUSH1 0x40 MLOAD PUSH2 0x132 SWAP2 SWAP1 PUSH2 0x6D1 JUMP JUMPDEST PUSH1 0x40 MLOAD DUP1 SWAP2 SUB SWAP1 RETURN JUMPDEST PUSH2 0x143 PUSH2 0x5AA JUMP JUMPDEST PUSH1 0x40 MLOAD PUSH2 0x150 SWAP2 SWAP1 PUSH2 0x6D1 JUMP JUMPDEST PUSH1 0x40 MLOAD DUP1 SWAP2 SUB SWAP1 RETURN JUMPDEST PUSH1 0x0 DUP1 SLOAD PUSH2 0x166 SWAP1 PUSH2 0x82F JUMP JUMPDEST DUP1 PUSH1 0x1F ADD PUSH1 0x20 DUP1 SWAP2 DIV MUL PUSH1 0x20 ADD PUSH1 0x40 MLOAD SWAP1 DUP2 ADD PUSH1 0x40 MSTORE DUP1 SWAP3 SWAP2 SWAP1 DUP2 DUP2 MSTORE PUSH1 0x20 ADD DUP3 DUP1 SLOAD PUSH2 0x192 SWAP1 PUSH2 0x82F JUMP JUMPDEST DUP1 ISZERO PUSH2 0x1DF JUMPI DUP1 PUSH1 0x1F LT PUSH2 0x1B4 JUMPI PUSH2 0x100 DUP1 DUP4 SLOAD DIV MUL DUP4 MSTORE SWAP2 PUSH1 0x20 ADD SWAP2 PUSH2 0x1DF JUMP JUMPDEST DUP3 ADD SWAP2 SWAP1 PUSH1 0x0 MSTORE PUSH1 0x20 PUSH1 0x0 KECCAK256 SWAP1 JUMPDEST DUP2 SLOAD DUP2 MSTORE SWAP1 PUSH1 0x1 ADD SWAP1 PUSH1 0x20 ADD DUP1 DUP4 GT PUSH2 0x1C2 JUMPI DUP3 SWAP1 SUB PUSH1 0x1F AND DUP3 ADD SWAP2 JUMPDEST POP POP POP POP POP DUP2 JUMP JUMPDEST PUSH1 0x3 DUP1 SLOAD PUSH2 0x1F4 SWAP1 PUSH2 0x82F JUMP JUMPDEST DUP1 PUSH1 0x1F ADD PUSH1 0x20 DUP1 SWAP2 DIV MUL PUSH1 0x20 ADD PUSH1 0x40 MLOAD SWAP1 DUP2 ADD PUSH1 0x40 MSTORE DUP1 SWAP3 SWAP2 SWAP1 DUP2 DUP2 MSTORE PUSH1 0x20 ADD DUP3 DUP1 SLOAD PUSH2 0x220 SWAP1 PUSH2 0x82F JUMP JUMPDEST DUP1 ISZERO PUSH2 0x26D JUMPI DUP1 PUSH1 0x1F LT PUSH2 0x242 JUMPI PUSH2 0x100 DUP1 DUP4 SLOAD DIV MUL DUP4 MSTORE SWAP2 PUSH1 0x20 ADD SWAP2 PUSH2 0x26D JUMP JUMPDEST DUP3 ADD SWAP2 SWAP1 PUSH1 0x0 MSTORE PUSH1 0x20 PUSH1 0x0 KECCAK256 SWAP1 JUMPDEST DUP2 SLOAD DUP2 MSTORE SWAP1 PUSH1 0x1 ADD SWAP1 PUSH1 0x20 ADD DUP1 DUP4 GT PUSH2 0x250 JUMPI DUP3 SWAP1 SUB PUSH1 0x1F AND DUP3 ADD SWAP2 JUMPDEST POP POP POP POP POP DUP2 JUMP JUMPDEST PUSH1 0x4 SLOAD DUP2 JUMP JUMPDEST PUSH1 0x60 DUP1 PUSH1 0x60 DUP1 PUSH1 0x0 DUP1 PUSH1 0x0 PUSH1 0x1 PUSH1 0x2 PUSH1 0x3 PUSH1 0x4 SLOAD PUSH1 0x5 PUSH1 0x0 SWAP1 SLOAD SWAP1 PUSH2 0x100 EXP SWAP1 DIV PUSH20 0xFFFFFFFFFFFFFFFFFFFFFFFFFFFFFFFFFFFFFFFF AND DUP6 DUP1 SLOAD PUSH2 0x2BE SWAP1 PUSH2 0x82F JUMP JUMPDEST DUP1 PUSH1 0x1F ADD PUSH1 0x20 DUP1 SWAP2 DIV MUL PUSH1 0x20 ADD PUSH1 0x40 MLOAD SWAP1 DUP2 ADD PUSH1 0x40 MSTORE DUP1 SWAP3 SWAP2 SWAP1 DUP2 DUP2 MSTORE PUSH1 0x20 ADD DUP3 DUP1 SLOAD PUSH2 0x2EA SWAP1 PUSH2 0x82F JUMP JUMPDEST DUP1 ISZERO PUSH2 0x337 JUMPI DUP1 PUSH1 0x1F LT PUSH2 0x30C JUMPI PUSH2 0x100 DUP1 DUP4 SLOAD DIV MUL DUP4 MSTORE SWAP2 PUSH1 0x20 ADD SWAP2 PUSH2 0x337 JUMP JUMPDEST DUP3 ADD SWAP2 SWAP1 PUSH1 0x0 MSTORE PUSH1 0x20 PUSH1 0x0 KECCAK256 SWAP1 JUMPDEST DUP2 SLOAD DUP2 MSTORE SWAP1 PUSH1 0x1 ADD SWAP1 PUSH1 0x20 ADD DUP1 DUP4 GT PUSH2 0x31A JUMPI DUP3 SWAP1 SUB PUSH1 0x1F AND DUP3 ADD SWAP2 JUMPDEST POP POP POP POP POP SWAP6 POP DUP5 DUP1 SLOAD PUSH2 0x34A SWAP1 PUSH2 0x82F JUMP JUMPDEST DUP1 PUSH1 0x1F ADD PUSH1 0x20 DUP1 SWAP2 DIV MUL PUSH1 0x20 ADD PUSH1 0x40 MLOAD SWAP1 DUP2 ADD PUSH1 0x40 MSTORE DUP1 SWAP3 SWAP2 SWAP1 DUP2 DUP2 MSTORE PUSH1 0x20 ADD DUP3 DUP1 SLOAD PUSH2 0x376 SWAP1 PUSH2 0x82F JUMP JUMPDEST DUP1 ISZERO PUSH2 0x3C3 JUMPI DUP1 PUSH1 0x1F LT PUSH2 0x398 JUMPI PUSH2 0x100 DUP1 DUP4 SLOAD DIV MUL DUP4 MSTORE SWAP2 PUSH1 0x20 ADD SWAP2 PUSH2 0x3C3 JUMP JUMPDEST DUP3 ADD SWAP2 SWAP1 PUSH1 0x0 MSTORE PUSH1 0x20 PUSH1 0x0 KECCAK256 SWAP1 JUMPDEST DUP2 SLOAD DUP2 MSTORE SWAP1 PUSH1 0x1 ADD SWAP1 PUSH1 0x20 ADD DUP1 DUP4 GT PUSH2 0x3A6 JUMPI DUP3 SWAP1 SUB PUSH1 0x1F AND DUP3 ADD SWAP2 JUMPDEST POP POP POP POP POP SWAP5 POP DUP4 DUP1 SLOAD PUSH2 0x3D6 SWAP1 PUSH2 0x82F JUMP JUMPDEST DUP1 PUSH1 0x1F ADD PUSH1 0x20 DUP1 SWAP2 DIV MUL PUSH1 0x20 ADD PUSH1 0x40 MLOAD SWAP1 DUP2 ADD PUSH1 0x40 MSTORE DUP1 SWAP3 SWAP2 SWAP1 DUP2 DUP2 MSTORE PUSH1 0x20 ADD DUP3 DUP1 SLOAD PUSH2 0x402 SWAP1 PUSH2 0x82F JUMP JUMPDEST DUP1 ISZERO PUSH2 0x44F JUMPI DUP1 PUSH1 0x1F LT PUSH2 0x424 JUMPI PUSH2 0x100 DUP1 DUP4 SLOAD DIV MUL DUP4 MSTORE SWAP2 PUSH1 0x20 ADD SWAP2 PUSH2 0x44F JUMP JUMPDEST DUP3 ADD SWAP2 SWAP1 PUSH1 0x0 MSTORE PUSH1 0x20 PUSH1 0x0 KECCAK256 SWAP1 JUMPDEST DUP2 SLOAD DUP2 MSTORE SWAP1 PUSH1 0x1 ADD SWAP1 PUSH1 0x20 ADD DUP1 DUP4 GT PUSH2 0x432 JUMPI DUP3 SWAP1 SUB PUSH1 0x1F AND DUP3 ADD SWAP2 JUMPDEST POP POP POP POP POP SWAP4 POP DUP3 DUP1 SLOAD PUSH2 0x462 SWAP1 PUSH2 0x82F JUMP JUMPDEST DUP1 PUSH1 0x1F ADD PUSH1 0x20 DUP1 SWAP2 DIV MUL PUSH1 0x20 ADD PUSH1 0x40 MLOAD SWAP1 DUP2 ADD PUSH1 0x40 MSTORE DUP1 SWAP3 SWAP2 SWAP1 DUP2 DUP2 MSTORE PUSH1 0x20 ADD DUP3 DUP1 SLOAD PUSH2 0x48E SWAP1 PUSH2 0x82F JUMP JUMPDEST DUP1 ISZERO PUSH2 0x4DB JUMPI DUP1 PUSH1 0x1F LT PUSH2 0x4B0 JUMPI PUSH2 0x100 DUP1 DUP4 SLOAD DIV MUL DUP4 MSTORE SWAP2 PUSH1 0x20 ADD SWAP2 PUSH2 0x4DB JUMP JUMPDEST DUP3 ADD SWAP2 SWAP1 PUSH1 0x0 MSTORE PUSH1 0x20 PUSH1 0x0 KECCAK256 SWAP1 JUMPDEST DUP2 SLOAD DUP2 MSTORE SWAP1 PUSH1 0x1 ADD SWAP1 PUSH1 0x20 ADD DUP1 DUP4 GT PUSH2 0x4BE JUMPI DUP3 SWAP1 SUB PUSH1 0x1F AND DUP3 ADD SWAP2 JUMPDEST POP POP POP POP POP SWAP3 POP SWAP6 POP SWAP6 POP SWAP6 POP SWAP6 POP SWAP6 POP SWAP6 POP SWAP1 SWAP2 SWAP3 SWAP4 SWAP5 SWAP6 JUMP JUMPDEST PUSH1 0x5 PUSH1 0x0 SWAP1 SLOAD SWAP1 PUSH2 0x100 EXP SWAP1 DIV PUSH20 0xFFFFFFFFFFFFFFFFFFFFFFFFFFFFFFFFFFFFFFFF AND DUP2 JUMP JUMPDEST PUSH1 0x2 DUP1 SLOAD PUSH2 0x529 SWAP1 PUSH2 0x82F JUMP JUMPDEST DUP1 PUSH1 0x1F ADD PUSH1 0x20 DUP1 SWAP2 DIV MUL PUSH1 0x20 ADD PUSH1 0x40 MLOAD SWAP1 DUP2 ADD PUSH1 0x40 MSTORE DUP1 SWAP3 SWAP2 SWAP1 DUP2 DUP2 MSTORE PUSH1 0x20 ADD DUP3 DUP1 SLOAD PUSH2 0x555 SWAP1 PUSH2 0x82F JUMP JUMPDEST DUP1 ISZERO PUSH2 0x5A2 JUMPI DUP1 PUSH1 0x1F LT PUSH2 0x577 JUMPI PUSH2 0x100 DUP1 DUP4 SLOAD DIV MUL DUP4 MSTORE SWAP2 PUSH1 0x20 ADD SWAP2 PUSH2 0x5A2 JUMP JUMPDEST DUP3 ADD SWAP2 SWAP1 PUSH1 0x0 MSTORE PUSH1 0x20 PUSH1 0x0 KECCAK256 SWAP1 JUMPDEST DUP2 SLOAD DUP2 MSTORE SWAP1 PUSH1 0x1 ADD SWAP1 PUSH1 0x20 ADD DUP1 DUP4 GT PUSH2 0x585 JUMPI DUP3 SWAP1 SUB PUSH1 0x1F AND DUP3 ADD SWAP2 JUMPDEST POP POP POP POP POP DUP2 JUMP JUMPDEST PUSH1 0x1 DUP1 SLOAD PUSH2 0x5B7 SWAP1 PUSH2 0x82F JUMP JUMPDEST DUP1 PUSH1 0x1F ADD PUSH1 0x20 DUP1 SWAP2 DIV MUL PUSH1 0x20 ADD PUSH1 0x40 MLOAD SWAP1 DUP2 ADD PUSH1 0x40 MSTORE DUP1 SWAP3 SWAP2 SWAP1 DUP2 DUP2 MSTORE PUSH1 0x20 ADD DUP3 DUP1 SLOAD PUSH2 0x5E3 SWAP1 PUSH2 0x82F JUMP JUMPDEST DUP1 ISZERO PUSH2 0x630 JUMPI DUP1 PUSH1 0x1F LT PUSH2 0x605 JUMPI PUSH2 0x100 DUP1 DUP4 SLOAD DIV MUL DUP4 MSTORE SWAP2 PUSH1 0x20 ADD SWAP2 PUSH2 0x630 JUMP JUMPDEST DUP3 ADD SWAP2 SWAP1 PUSH1 0x0 MSTORE PUSH1 0x20 PUSH1 0x0 KECCAK256 SWAP1 JUMPDEST DUP2 SLOAD DUP2 MSTORE SWAP1 PUSH1 0x1 ADD SWAP1 PUSH1 0x20 ADD DUP1 DUP4 GT PUSH2 0x613 JUMPI DUP3 SWAP1 SUB PUSH1 0x1F AND DUP3 ADD SWAP2 JUMPDEST POP POP POP POP POP DUP2 JUMP JUMPDEST PUSH1 0x0 DUP2 MLOAD SWAP1 POP SWAP2 SWAP1 POP JUMP JUMPDEST PUSH1 0x0 DUP3 DUP3 MSTORE PUSH1 0x20 DUP3 ADD SWAP1 POP SWAP3 SWAP2 POP POP JUMP JUMPDEST PUSH1 0x0 JUMPDEST DUP4 DUP2 LT ISZERO PUSH2 0x672 JUMPI DUP1 DUP3 ADD MLOAD DUP2 DUP5 ADD MSTORE PUSH1 0x20 DUP2 ADD SWAP1 POP PUSH2 0x657 JUMP JUMPDEST DUP4 DUP2 GT ISZERO PUSH2 0x681 JUMPI PUSH1 0x0 DUP5 DUP5 ADD MSTORE JUMPDEST POP POP POP POP JUMP JUMPDEST PUSH1 0x0 PUSH1 0x1F NOT PUSH1 0x1F DUP4 ADD AND SWAP1 POP SWAP2 SWAP1 POP JUMP JUMPDEST PUSH1 0x0 PUSH2 0x6A3 DUP3 PUSH2 0x638 JUMP JUMPDEST PUSH2 0x6AD DUP2 DUP6 PUSH2 0x643 JUMP JUMPDEST SWAP4 POP PUSH2 0x6BD DUP2 DUP6 PUSH1 0x20 DUP7 ADD PUSH2 0x654 JUMP JUMPDEST PUSH2 0x6C6 DUP2 PUSH2 0x687 JUMP JUMPDEST DUP5 ADD SWAP2 POP POP SWAP3 SWAP2 POP POP JUMP JUMPDEST PUSH1 0x0 PUSH1 0x20 DUP3 ADD SWAP1 POP DUP2 DUP2 SUB PUSH1 0x0 DUP4 ADD MSTORE PUSH2 0x6EB DUP2 DUP5 PUSH2 0x698 JUMP JUMPDEST SWAP1 POP SWAP3 SWAP2 POP POP JUMP JUMPDEST PUSH1 0x0 DUP2 SWAP1 POP SWAP2 SWAP1 POP JUMP JUMPDEST PUSH2 0x706 DUP2 PUSH2 0x6F3 JUMP JUMPDEST DUP3 MSTORE POP POP JUMP JUMPDEST PUSH1 0x0 PUSH1 0x20 DUP3 ADD SWAP1 POP PUSH2 0x721 PUSH1 0x0 DUP4 ADD DUP5 PUSH2 0x6FD JUMP JUMPDEST SWAP3 SWAP2 POP POP JUMP JUMPDEST PUSH1 0x0 PUSH20 0xFFFFFFFFFFFFFFFFFFFFFFFFFFFFFFFFFFFFFFFF DUP3 AND SWAP1 POP SWAP2 SWAP1 POP JUMP JUMPDEST PUSH1 0x0 PUSH2 0x752 DUP3 PUSH2 0x727 JUMP JUMPDEST SWAP1 POP SWAP2 SWAP1 POP JUMP JUMPDEST PUSH2 0x762 DUP2 PUSH2 0x747 JUMP JUMPDEST DUP3 MSTORE POP POP JUMP JUMPDEST PUSH1 0x0 PUSH1 0xC0 DUP3 ADD SWAP1 POP DUP2 DUP2 SUB PUSH1 0x0 DUP4 ADD MSTORE PUSH2 0x782 DUP2 DUP10 PUSH2 0x698 JUMP JUMPDEST SWAP1 POP DUP2 DUP2 SUB PUSH1 0x20 DUP4 ADD MSTORE PUSH2 0x796 DUP2 DUP9 PUSH2 0x698 JUMP JUMPDEST SWAP1 POP DUP2 DUP2 SUB PUSH1 0x40 DUP4 ADD MSTORE PUSH2 0x7AA DUP2 DUP8 PUSH2 0x698 JUMP JUMPDEST SWAP1 POP DUP2 DUP2 SUB PUSH1 0x60 DUP4 ADD MSTORE PUSH2 0x7BE DUP2 DUP7 PUSH2 0x698 JUMP JUMPDEST SWAP1 POP PUSH2 0x7CD PUSH1 0x80 DUP4 ADD DUP6 PUSH2 0x6FD JUMP JUMPDEST PUSH2 0x7DA PUSH1 0xA0 DUP4 ADD DUP5 PUSH2 0x759 JUMP JUMPDEST SWAP8 SWAP7 POP POP POP POP POP POP POP JUMP JUMPDEST PUSH1 0x0 PUSH1 0x20 DUP3 ADD SWAP1 POP PUSH2 0x7FA PUSH1 0x0 DUP4 ADD DUP5 PUSH2 0x759 JUMP JUMPDEST SWAP3 SWAP2 POP POP JUMP JUMPDEST PUSH32 0x4E487B7100000000000000000000000000000000000000000000000000000000 PUSH1 0x0 MSTORE PUSH1 0x22 PUSH1 0x4 MSTORE PUSH1 0x24 PUSH1 0x0 REVERT JUMPDEST PUSH1 0x0 PUSH1 0x2 DUP3 DIV SWAP1 POP PUSH1 0x1 DUP3 AND DUP1 PUSH2 0x847 JUMPI PUSH1 0x7F DUP3 AND SWAP2 POP JUMPDEST PUSH1 0x20 DUP3 LT DUP2 EQ ISZERO PUSH2 0x85B JUMPI PUSH2 0x85A PUSH2 0x800 JUMP JUMPDEST JUMPDEST POP SWAP2 SWAP1 POP JUMP INVALID LOG2 PUSH5 0x6970667358 0x22 SLT KECCAK256 0xD8 0xA9 PUSH14 0xC8A5A7546A9B6C16D53D6D5185FD 0xD4 0x28 0xEB ORIGIN RETURN GT 0xC5 EXTCODEHASH 0xC4 PUSH9 0x535CB37B3664736F6C PUSH4 0x4300080B STOP CALLER LOG2 PUSH5 0x6970667358 0x22 SLT KECCAK256 0xA6 0xF6 0x5D MULMOD SWAP10 0xCE 0xF7 0xE4 0xF PUSH19 0x582014116D9F87AF6C17EEA81A87EB491A5CBE 0xDB 0x2A 0x29 PUSH5 0x736F6C6343 STOP ADDMOD SIGNEXTEND STOP CALLER "},"gasEstimates":{"creation":{"codeDepositCost":"1110400","executionCost":"1154","totalCost":"1111554"},"external":{"buy(string,string,uint256,address,string,string)":"infinite","deploy(uint256)":"4978","get()":"infinite"}},"methodIdentifiers":{"buy(string,string,uint256,address,string,string)":"411eded3","deploy(uint256)":"a5e38751","get()":"6d4ce63c"}},"storageLayout":{"storage":[{"astId":4,"contract":"Auctioninfo.sol:Factory","label":"deploy","offset":0,"slot":"0","type":"t_array(t_address)dyn_storage"}],"types":{"t_address":{"encoding":"inplace","label":"address","numberOfBytes":"20"},"t_array(t_address)dyn_storage":{"base":"t_address","encoding":"dynamic_array","label":"address[]","numberOfBytes":"32"}}},"userdoc":{"kind":"user","methods":{},"version":1}}